:0400000061EF00F0BC
:10000800FACF99F0FBCF9AF0E9CF9BF003EF09F014
:10001800D8CF1DF0E8CF1EF0E0CF1FF0FACF20F0C8
:10002800FBCF21F0E9CF22F0EACF23F0E1CF24F093
:10003800E2CF25F0D9CF26F0DACF27F0F3CF28F09A
:10004800F4CF29F0F6CF2AF0F7CF2BF0F8CF2CF029
:10005800F5CF2DF09EA001D001D004D09E9066EC83
:100068000CF000D09EAA01D001D004D09E9AB1EC29
:1000780008F000D02DC0F5FF2CC0F8FF2BC0F7FF0B
:100088002AC0F6FF29C0F4FF28C0F3FF27C0DAFF13
:1000980026C0D9FF25C0E2FF24C0E1FF23C0EAFF44
:1000A80022C0E9FF21C0FBFF20C0FAFF1FC0E0FF0C
:1000B8001EC0E8FF1DC0D8FF10004AEF0BF000017A
:1000C8008B6F000E00010001956F00018B5100013C
:1000D8008B6F000E00010001906F00018B51000131
:1000E8008B6F000E00010001946F00018B5100011D
:1000F8008B6F000E00010001926F00018B5100010F
:100108008B6F000E00010001916F00018B51C6AC8E
:1001180029D0C69C000120EE0CF00001C751D92659
:100128000001C851DA22050EDF6E00018B6F010E47
:1001380000010001916F00018B51000120EE0EF0CB
:100148000001C751D9260001C851DA22DF2A00016F
:1001580020EE0DF00001C751D9260001C851DA225E
:10016800040EDF6EC7A00AD0C9CF93F000018B6FD1
:10017800010E00010001956F00018B510001000183
:100188009167CDD1B6D1C7A6CAD195C02EF04FEC94
:1001980007F0000120EE0CF00001C751D92600013C
:1001A800C851DA22080EDF62BAD100018B6F000E47
:1001B80000010001956F00018B5100018B6F010E4A
:1001C80000010001926F87D1C7A830D0000120EE4E
:1001D8000BF00001C751D9260001C851DA22DF2AE5
:1001E800000100019551D8B479D1C7BA09D00001EE
:1001F8008B6F010E00010001946F00018B516ED1CD
:10020800000120EE0EF00001C751D9260001C851A7
:10021800DA22DF2A000120EE0DF00001C751D926AD
:100228000001C851DA22060EDF6E58D10001000124
:100238009551D8B474D1000120EE0BF00001C751DC
:10024800D9260001C851DA22DF2AC7BA19D0C7B4A3
:100258000BD0000120EE0CF00001C751D926000197
:10026800C851DA22070E76D0000120EE0CF000010A
:10027800C751D9260001C851DA22080EDF6E1DD1F8
:10028800000120EE0EF00001C751D9260001C85127
:10029800DA22DF2A000120EE0CF00001C751D9262E
:1002A8000001C851DA22050EDF6E000120EE0DF0C4
:1002B8000001C751D9260001C851DA22060E4AD0DA
:1002C800000120EE1AF00001C751D9260001C851DB
:1002D800DA22DF5000018B6F000120EE19F00001D7
:1002E800C751D9260001C851DA22DF5000018B5DC1
:1002F800D8B0F4D0000120EE1AF00001C751D92679
:100308000001C851DA22DF5000018B6F00018B51C8
:10031800010D0F0EF326000EF422F3500001000128
:10032800C725D96EF45000010001C821DA6EDF50EC
:10033800C96E000120EE1AF00001C751D92600014C
:10034800C851DA22DF2A00018B6F010E000100017B
:10035800906FC1D0DF6EE3D0C7A862D0000120EE55
:100368000BF00001C751D9260001C851DA22DF2A53
:10037800000100019551D8B44AD0C7AA27D000017E
:1003880020EE0AF00001C751D9260001C851DA222F
:10039800DF5000018B6F00018B51010DF3500001FC
:1003A8000001C725D96EF45000010001C821DA6E9A
:1003B800000193C0DFFF000120EE0AF00001C751E1
:1003C800D9260001C851DA22DF2A21D0000120EE07
:1003D8000EF00001C751D9260001C851DA22DF2AE0
:1003E800000120EE0DF00001C751D9260001C851C7
:1003F800DA22060EDF6E000120EE0CF00001C75174
:10040800D9260001C851DA22050EDF6E67D0000137
:100418008B6F010E00010001946F00018B515ED0BB
:10042800000100019551D8B47AD0000120EE0BF0FC
:100438000001C751D9260001C851DA22DF2AC7AA0C
:1004480027D0000120EE0AF00001C751D92600018B
:10045800C851DA22DF5000018B6F00018B51010D6A
:10046800F35000010001C725D96EF45000010001C6
:10047800C821DA6E000193C0DFFF000120EE0AF008
:100488000001C751D9260001C851DA22DF2A47D016
:10049800C7A4B6D6000120EE0CF00001C751D9263A
:1004A8000001C851DA22080EDF6E00018B6F010EC1
:1004B80000010001946F00018B5100018B6F010E48
:1004C80000010001926F00018B5100018B6F000E3B
:1004D80000010001956F00018B5121D0000120EE31
:1004E8000CF00001C751D9260001C851DA22050EC7
:1004F80031D7000120EE0CF00001C751D9260001C8
:10050800C851DA22DF50050AD8B43DD6030AD8B458
:100518005BD6010AD8B420D70F0AD8B4D1D60001C7
:100528000001956705D0000100019051D8B402D0B0
:10053800C6A8C688000120EE0AF00001C751D926D6
:100548000001C851DA22080EDF6424D0000100013E
:10055800946720D0000120EE0CF00001C751D92685
:100568000001C851DA22050EDF6E000120EE0EF000
:100578000001C751D9260001C851DA22DF2A00013B
:1005880020EE0DF00001C751D9260001C851DA222A
:10059800070EDF6E000100019451D8B443D000016A
:1005A80020EE0BF00001C751D9260001C851DA220C
:1005B800000110EE0AF00001C751E1260001C85100
:1005C800E222E75000018B6F00018B51010DF350BF
:1005D80000010001C725E16EF45000010001C821A7
:1005E800E26EDFCFE7FF000120EE0AF00001C751FD
:1005F800D9260001C851DA22DF5000018B6F0001B3
:100608008B29396E00018C6F280E3A6E00018C51CF
:10061800C7C03BF0C8C03CF0F3EC0BF0000120EE83
:100628000AF04AD0000120EE0EF00001C751D92689
:100638000001C851DA22DF50D8B446D0000120EEBC
:100648000EF00001C751D9260001C851DA22DF5047
:10065800000100018D6F000120EE0DF00001C7516F
:10066800D9260001C851DA22DF50000100018E6F3F
:10067800000120EE0BF00001C751D9260001C85136
:10068800DA22DF50000100018F6F00018B6F030E2B
:10069800396E00018B5100018C6F290E3A6E0001F2
:1006A8008C510001000E3C6E00018D0E3B6EF3EC88
:1006B8000BF0000120EE0EF00001C751D926000111
:1006C800C851DA22000EDF6E000100019251D8B441
:1006D800120000018B6F000E396E00018B51000172
:1006E8008C6F2A0E3A6E00018C51C7C03BF0C8C00F
:1006F8003CF0F3EC0BF01200000E02010201116F46
:10070800000E0201106F820ED36E9B9C0201020E36
:1007180000010001A86F0201160E0001A76F00EC8E
:100728000AF00201020E00010001A86F0201120E78
:100738000001A76F5DEC0CF0CDEC09F0000E936E94
:10074800000E8A6E0001C46FC50E00010001A76F7C
:100758000001C45180EC0BF099EC0CF09F909F863F
:100768000001C46FD50E00010001A76F0001C4513C
:100778000001C56F840E00010001A86F0001C5517A
:100788000001C66FFF0E00010001A96F0001C651EC
:1007980050EC09F00001C46F9E0E00010001A76F24
:1007A8000001C45107EC0CF09D86B1EC07F0000184
:1007B800C46F0A0E00010001BF6F0001C45102019D
:1007C800020E00010001C16F0201140E0001C06F8A
:1007D8000201020E00010001C36F0201000E0001B8
:1007E800C26FC7EC0BF002010201156F0201020192
:1007F80015BFAED09ED00201020E00010001A86F05
:1008080002010D0E0001A76F0201000114C2A9F038
:1008180000010001AA6B020102011551000100014B
:10082800AB6F0001AC6B0001ABBFAC070201020E5D
:1008380000010001AE6F0201000E0001AD6F8FECE8
:100848000CF086D000C20FF283D00001C46F020EF4
:1008580002010201156F0001C451D8900201020182
:1008680010350001C46F0201020111350001C56F86
:10087800320E0001C425D96E020E0001C521DA6EC0
:10088800DF5002010201006F0001C46FAA0E0201CD
:100898000201016F0001C45102010201104B112B2A
:1008A800020102011151800A800FC70ED8B4105DF1
:1008B800D8A031D0000E02010201116F000E020112
:1008C800106F29D00001C46F010E02010201156FDB
:1008D8000001C4510001C46F3A0E0BD00001C46F6F
:1008E800010E02010201156F0001C4510001C46F1D
:1008F800A30E02010201006F0001C4510CD00201D5
:1009080002010F51A80AD8B4DDD7010AD8B4E6D736
:10091800030AD8B49AD715C2A7F00201020E000143
:100928000001A96F0201000E0001A86F51EC06F04A
:100938000FD00201020114510A0AD8B45CD7220A66
:10094800D8B480D7010AD8B47DD7030AD8B4D7D78A
:100958000001C46F0A0E00010001BF6F0001C451FD
:100968000201020E00010001C16F0201140E000114
:10097800C06F0201020E00010001C36F0201000EE8
:100988000001C26FB1EC0BF002010201156F020108
:10099800020115BF0AD74ED00201020E0001000164
:1009A800A86F0201120E0001A76F0201000114C214
:1009B800A9F000010001AA6B020102011551000112
:1009C8000001AB6F0001AC6B0001ABBFAC070201CB
:1009D800020E00010001AE6F0201000E0001AD6FB2
:1009E80081EC0CF0E2D60201020E00010001A86FB2
:1009F80002010B0E0001A76F0201000114C2A9F049
:100A080000010001AA6B0201020115510001000159
:100A1800AB6F0001AC6B0001ABBFAC070201020E6B
:100A280000010001AE6F0201000E0001AD6F2BEC5A
:100A38000BF0BBD60201020114510B0AD8B4ACD793
:100A4800150AD8B4D0D7010AD8B4CDD7AED600018C
:100A580020EE35F00001B151D9260001B251DA2259
:100A6800DF5000010001BA6F00010001BA510D0DFD
:100A7800F35000010001B12500010001BD6FF450E1
:100A880000010001B2210001BE6F010EBDC0D9FFF7
:100A9800BEC0DAFFDF626FD0000120EE01F0000176
:100AA800BD51D9260001BE51DA22DF5000010001F4
:100AB800B36102D0FD0E1200000120EE01F000012A
:100AC800BD51D9260001BE51DA22DF500001B86FAE
:100AD8000001B85100010001BB6F0001BC6BB6C03A
:100AE800A7F0B7C0A8F0030E00010001BD25000162
:100AF800B86F000E00010001BE210001B96FB8C037
:100B0800A9F0B9C0AAF0BBC0ABF0BCC0ACF031ECE6
:100B18000AF0000120EE35F00001B151D92600019C
:100B2800B251DA22000110EE35F00001B151E12690
:100B38000001B251E222E7500001B86F0001B82964
:100B4800030BDF6E000120EE02F00001BD51D92633
:100B58000001BE51DA22B4C0E1FFB5C0E2FFDFCF29
:100B6800E7FFBDC0D9FFBEC0DAFF000EDF6E00018F
:100B78000001BB511200FC0E1200000120EE35F0FE
:100B880000018051D92600018151DA22DF5000018D
:100B98000001876F0001000187510D0DF35000011E
:100BA80000018025000100018A6FF4500001000156
:100BB800812100018B6F010E8AC0D9FF8BC0DAFF3B
:100BC800DF6269D0000120EE01F000018A51D926C8
:100BD80000018B51DA22DF5000010001826102D04E
:100BE800FD0E1200000120EE01F000018A51D92605
:100BF80000018B51DA22DF50386E385000010001B5
:100C0800886F0001896B85C02EF086C02FF0030E17
:100C1800000100018A25386E000E000100018B21B9
:100C2800396E38C030F039C031F088C032F089C030
:100C380033F00BEC0BF0000120EE35F00001805191
:100C4800D92600018151DA22000110EE35F00001A9
:100C58008051E12600018151E222E750386E3828A0
:100C6800030BDF6E000120EE02F000018A51D92645
:100C780000018B51DA2283C0E1FF84C0E2FFDFCF9D
:100C8800E7FF8AC0D9FF8BC0DAFF000EDF6E0001D4
:100C9800000188511200FC0E1200000120EE19F02C
:100CA8000001C751D9260001C851DA22000EDF6EB3
:100CB80042D0000120EE19F00001C751D9260001E9
:100CC800C851DA22DF500001AA6F0001AA51010DB4
:100CD800F35000010001A825D96EF450000100016D
:100CE800A921DA6E000110EE19F00001C751E126C2
:100CF8000001C851E222E7500001AB6F0001AB517F
:100D0800010D0F0EF326000EF422F350000100012E
:100D1800C725E16EF45000010001C821E26EDFCF63
:100D2800E7FF000120EE19F00001C751D9260001A4
:100D3800C851DA22DF2A000120EE19F00001C7515C
:100D4800D9260001C851DA22DF500001AA6F00013C
:100D58000001A7510001AA5DD8A0ABD7000120EE81
:100D680019F00001C751D9260001C851DA22000143
:100D7800A7C0DFFF000120EE1AF00001C751D926F5
:100D88000001C851DA22010EDF6E000120EE0FF0DB
:100D98000001C751D9260001C851DA22DF50C96EB7
:100DA800C68812000001000182C086F0000100011F
:100DB800876B000120EE34F000018051D926000134
:100DC8008151DA22DF5000010001886F0001000123
:100DD80088510D0DF350000100018025000100012C
:100DE800896FF45000010001812100018A6F89C0D8
:100DF800D9FF8AC0DAFFDF50D8B402D0FF0E120044
:100E0800000120EE01F000018951D92600018A5124
:100E1800DA22000182C0DFFF000120EE02F00001AB
:100E28008951D92600018A51DA22000183C0DFFFE7
:100E3800030E0001000189252E6E000E000100013D
:100E48008A212F6E84C030F085C031F086C032F020
:100E580087C033F00BEC0BF0000120EE34F00001FA
:100E68008051D92600018151DA22000110EE34F0B8
:100E780000018051E12600018151E222E750386EDD
:100E88003828030BDF6E89C0D9FF8AC0DAFF010E4C
:100E9800DF6E010E1200000120EE0BF00001C751B9
:100EA800D9260001C851DA22010EDF6E000120EEBA
:100EB8000AF00001C751D9260001C851DA22000EF4
:100EC800DF6E2E50D8B43DD0C7AA21D0000120EE45
:100ED8000CF00001C751D9260001C851DA22050ECD
:100EE800DF6E000120EE0EF00001C751D926000187
:100EF800C851DA22DF2A000120EE0DF00001C751A7
:100F0800D9260001C851DA22050EDF6E1200C7A4E7
:100F18000CD0000120EE0CF00001C751D9260001C9
:100F2800C851DA22080EDF6E1200000120EE0CF024
:100F38000001C751D9260001C851DA22070EDF6E19
:100F48001200000120EE0CF00001C751D926000163
:100F5800C851DA22060EDF6E1200C9EC0AF0000151
:100F68000001AC510001AB11D8B412008A8600010F
:100F7800AD6F010E506E0001AD510101010E00016F
:100F88000001A86F01016C0E0001A76F65EC0BF062
:100F98000009D8B408D00001AD6F000E506E0001F2
:100FA800AD518A9612000101010E00010001A86FDF
:100FB8000101A20E0001A76F65EC0BF00009D8B47F
:100FC80008D00001AD6F000E506E0001AD518A9639
:100FD80012000001AD6F0A0E00010001A76F0001A9
:100FE800AD514BEC0CF08AB602D0010E01D0000EC8
:100FF8000001AD6F0001AD47AD47AD478A50000114
:10100800AD19F70BAD198A6EB8D70DC012F0136A77
:1010180020EE34F00B50D9260C50DA22DF50146E33
:1010280014500D0DF3500B24156EF4500C20166E51
:1010380015C0D9FF16C0DAFFDF50D8B402D0FF0EB2
:10104800120020EE01F01550D9261650DA220DC0F4
:10105800DFFF20EE02F01550D9261650DA220EC016
:10106800DFFF030E1524016E000E1620026E0FC05E
:1010780003F010C004F012C005F013C006F0EBEC4A
:101088000AF020EE34F00B50D9260C50DA2210EE7C
:1010980034F00B50E1260C50E222E750116E112873
:1010A800030BDF6E15C0D9FF16C0DAFF010EDF6E25
:1010B800010E12008AB002D0010E01D0000E00010C
:1010C800916F8A5000019119FE0B91198A6E000EDA
:1010D8002F6E000E2E6E78EC0CF00001916F020E50
:1010E800000100018C6F000191510001000E000108
:1010F80000018E6F0001950E00018D6F0001000E3A
:1011080000010001906F0001970E00018F6FDDEC68
:101118000BF000010001936F0001946B000193BF75
:101128009407000100019351020A9411D8A41200F7
:101138000001916F020E396E000191510001926F0A
:101148000A0E3A6E000192510001000E3C6E000139
:10115800970E3B6EF3EC0BF012009EAA3DD020EEEA
:1011680004F04E50D9264F50DA22DF501B6E1B5028
:10117800010DF3504E24D96EF4504F20DA6E3CEC3A
:101188000CF0DF6E20EE04F04E50D9264F50DA22D4
:10119800DF2A20EE04F04E50D9264F50DA22040EF2
:1011A800DF621AD020EE04F04E50D9264F50DA22D2
:1011B800DF50176E1B6E1F0E186E1B504EC019F0B5
:1011C8004FC01AF02BEC0CF020EE04F04E50D9264C
:1011D8004F50DA22000EDF6E51A61200AB98AB8892
:1011E8001B6E000E176E1B501C6E1E0E186E1C50C8
:1011F800000E1A6E000E196E2BEC0CF01200EACFDE
:101208009CF0E1CF9DF0E2CF9EF0D9CF9FF0DACFEE
:10121800A0F0F3CFA1F0F4CFA2F0F6CFA3F0F7CF70
:10122800A4F0F8CFA5F0F5CFA6F09EA601D001D086
:1012380004D09E9663EC00F000D0F2A401D001D057
:1012480004D0F2945EEC08F000D09EAC01D001D03E
:1012580004D09E9C7FEC0AF000D058EC0AF0A6C09F
:10126800F5FFA5C0F8FFA4C0F7FFA3C0F6FFA2C012
:10127800F4FFA1C0F3FFA0C0DAFF9FC0D9FF9EC052
:10128800E2FF9DC0E1FF9CC0EAFF9BC0E9FF9AC056
:10129800FBFF99C0FAFF1100000EC26E000EC06E6F
:1012A80000010001D890A8313C0BC26EA8C0AAF07A
:1012B8000001AA3BF00EAA17300E0001AA17000180
:1012C8000001A9510F0B0001AA11C16EA7C0AAF015
:1012D8000001D890AA370001D890AA37380E00012B
:1012E800AA17A7C0ABF00001AB3B0F0EAB17070E58
:1012F8000001AB1700010001A751800B0001AB11E1
:101308000001AA11C06E00010001A8AF03D09E9C85
:101318009D8CF28CC2801200000120EE34F0000196
:10132800A751D9260001A851DA22000EDF6E00016C
:1013380020EE35F00001A751D9260001A851DA2284
:10134800000EDF6E0001A96F000E00010001AA6FF8
:101358000001A951030E00010001AA6501D0120085
:1013680000010001AA510D0DF35000010001A7254D
:10137800D96EF45000010001A821DA6E000EDF6E6C
:1013880000010001AA2B030E00010001AA65E8D79D
:1013980012000001AB6F000E506E0001AB5101014D
:1013A800010E00010001A86F0101A20E0001A76F44
:1013B80090EC09F00101010E00010001A86F010184
:1013C8006C0E0001A76F90EC09F00101010E0001FD
:1013D8000001A86F0101360E0001A76F90EC09F01B
:1013E8000101010E00010001A86F0101000E0001BA
:1013F800A76F90EC09F01200A7C0C7F0A8C0C8F00A
:10140800000120EE0AF00001C751D9260001C85199
:10141800DA22000EDF6E000120EE0BF00001C7514A
:10142800D9260001C851DA22000EDF6E000120EE35
:101438000CF00001C751D9260001C851DA22050E67
:10144800DF6E000120EE0EF00001C751D926000121
:10145800C851DA22000EDF6E1200A9C0AFF0AAC090
:10146800B0F0A7C0ADF0A8C0AEF012D0AFC0D9FFA1
:10147800B0C0DAFFADC0E1FFAEC0E2FFDFCFE7FFEB
:1014880000010001AF4BB02B00010001AD4BAE2BAA
:1014980000010001AB07D8A0AC070001AB29D8B404
:1014A800AC29D8B41200E2D7506601D012009AECE9
:1014B8000BF031503010D8A4120089EC0CF02F50EA
:1014C8002E10D8B412000101010E2F6E01016C0E0E
:1014D8002E6E19EC0CF00009D8A412000101010EBF
:1014E8002F6E0101A20E2E6E19EC0CF00009D8B473
:1014F8009DEC0CF0120094EC0CF02EC048F02FC0BC
:1015080049F0D8904A34306E4B34316E320E302464
:10151800D96E020E3120DA6E48C0DEFF49C0DDFF09
:101528004B50800A800FC60ED8B44A5CD8B003D09E
:101538004A4A4B2A1200000E4B6E000E4A6EA0EC6F
:101548000CF01200F2AC08D0000E00010001AA6FE6
:10155800000E0001A96F120054EC0CF0000100010C
:10156800A8510001A711D8B408D0000E000100014D
:10157800AA6F000E0001A96F1200000E0001000101
:10158800AA6F010E0001A96F1200A6EC0AF0000173
:101598000001AA510001A911D8A411D054EC0CF0F3
:1015A80000010001A8510001A711D8A408D0000E1D
:1015B80000010001AC6F010E0001AB6F1200000EBC
:1015C80000010001AC6F000E0001AB6F120003C0F8
:1015D80009F004C00AF001C007F002C008F00ED0FC
:1015E80009C0D9FF0AC0DAFF07C0E1FF08C0E2FF5F
:1015F800DFCFE7FF094A0A2A074A082A0506D8A0C2
:1016080006060528D8B40628D8B41200E9D730C091
:1016180036F031C037F02EC034F02FC035F00ED080
:1016280036C0D9FF37C0DAFF34C0E1FF35C0E2FF6A
:10163800DFCFE7FF364A372A344A352A3206D8A0A0
:1016480033063228D8B43328D8B41200E9D70001B9
:101658000001A9511E0AAA11D8B412000001000104
:10166800A9511F0AAA11D8A4120000010001AB5108
:1016780000010001AD25D96E00010001AC51000147
:101688000001AE21DA6E000EDF6E120002EE32F0BB
:1016980011EE90F0EE6AE550E150FCE1E250FAE11B
:1016A80001EE00F0D80EEE6AE806FDE100EE3DF02E
:1016B800160EEE6AE806FDE1000EF86E000180EFF6
:1016C80003F0000120EE35F00001A751D9260001F2
:1016D800A851DA22DF500001A96F0001A9510D0DB0
:1016E800F35000010001A725D96EF4500001000154
:1016F800A821DA6EDF50120000010001A7517E0B0D
:10170800CD6E00010001A7AD02D0CD8E01D0CD9ED7
:10171800000ECF6E000ECE6E9E9000010001A7AFA6
:1017280002D09D8001D09D90CD801200F2AC05D0F2
:10173800000E316E000E306E120089EC0CF02F5046
:101748002E10D8B405D0000E316E000E306E120087
:10175800000E316E010E306E12000101010E000103
:101768000001B26F0101A20E0001B16FBFC0B3F05A
:10177800C0C0B4F0C1C0B5F0C2C0B6F0C3C0B7F0C5
:101788002BEC05F012000101010E00010001B26FFF
:1017980001016C0E0001B16FBFC0B3F0C0C0B4F05E
:1017A800C1C0B5F0C2C0B6F0C3C0B7F02BEC05F0AD
:1017B80012000101010E00010001816F0101000EFC
:1017C8000001806F8CC082F08DC083F08EC084F0E1
:1017D8008FC085F090C086F0C1EC05F012000101C1
:1017E800010E00010001816F01016C0E0001806F84
:1017F80039C082F03AC083F03BC084F03CC085F029
:10180800D6EC06F0120094869488A7C0C8FF000E94
:10181800C76E000EC66E000EC56E0E0EC612C78EBF
:1018280094869488C580C68A120020EE35F02E5022
:10183800D9262F50DA22DF50306E30500D0DF3507C
:101848002E24D96EF4502F20DA6EDF5012000101D9
:10185800010E0C6E0101A20E0B6E17C00DF018C020
:101868000EF019C00FF01AC010F009EC08F01200C1
:10187800F20E5116ABAC03D05190ABB05180ABB463
:101888005184ABB25186AECF01F001501200FA0E6E
:1018980000F0E82EFDD700010001A72FF8D71200AD
:1018A800000EF2AE010E00010001A76F0001A86B47
:1018B8001200A7C0D9FFA8C0DAFF000EDE6E000E26
:1018C800DD6E1200A3EC0CF0FE0E026E3E0E016EF1
:1018D8006FEC0CF0120001C003F002C004F004C069
:1018E800CFFF03C0CEFF12002EC030F02FC031F062
:1018F80031C0D7FF30C0D6FF1200A7C0D9FFA8C09B
:10190800DAFFDE2A000EDD221200000EF2AE010E12
:101918002E6E2F6A1200ADC0AFF0AEC0B0F012004C
:10192800C4502F6EC3502E6E1200D08EF28EF28CE1
:101938001200D38E03001200CD909D901200C28237
:0219480012008B
:067FF80080F4C5FFFFF15B
:00000001FF
