:0400000065EF00F0B8
:10000800FACF9BF0FBCF9CF0E9CF9DF0C4EF06F050
:10001800D8CF1DF0E8CF1EF0E0CF1FF0FACF20F0C8
:10002800FBCF21F0E9CF22F0EACF23F0E1CF24F093
:10003800E2CF25F0D9CF26F0DACF27F0F3CF28F09A
:10004800F4CF29F0F6CF2AF0F7CF2BF0F8CF2CF029
:10005800F5CF2DF09EA001D001D004D09E903EECAB
:100068000AF000D09EA801D001D008D09DA801D0E8
:1000780001D004D09D98EDEC0AF000D02DC0F5FF1A
:100088002CC0F8FF2BC0F7FF2AC0F6FF29C0F4FFE9
:1000980028C0F3FF27C0DAFF26C0D9FF25C0E2FF3A
:1000A80024C0E1FF23C0EAFF22C0E9FF21C0FBFF13
:1000B80020C0FAFF1FC0E0FF1EC0E8FF1DC0D8FF28
:0600C800100082EF09F0B8
:10040000746573740000000E02010201436F000E58
:100410000201426F820ED36E9B9C0201020E00010C
:100420000001AA6F0201480E0001A96FCDEC07F090
:100430000001C66F020E00010001A96F0001C65144
:10044000ABEC0AF00001C66F080E00010001A96FB5
:100450000001C6510001C76F800E00010001AA6FA4
:100460000001C75167EC0AF00201020E0001000111
:10047000AA6F0201440E0001A96FCAEC0AF09AECBF
:1004800007F0000E936E000E8A6E0001C66FC50E57
:1004900000010001A96F0001C6519CEC09F003ECBA
:1004A0000BF09F909F8A9F989F869D8A9D989D861E
:1004B00017EC06F00001C66F0A0E00010001C16FC3
:1004C0000001C6510201020E00010001C36F0201CA
:1004D000460E0001C26F0201020E00010001C56F4D
:1004E0000201320E0001C46F12EC0AF00201020197
:1004F000476F0201020147BF97D087D00201020E69
:1005000000010001AA6F02013F0E0001A96F020164
:10051000000146C2ABF000010001AC6B0201020118
:10052000475100010001AD6F0001AE6B0001ADBF8E
:10053000AE070201020E00010001B06F0201320E8F
:100540000001AF6FF9EC0AF06FD032C241F26CD00B
:100550000001C66F020E02010201476F0001C65181
:100560000001C66FAA0E02010201336F0001C651DD
:1005700002010201424B432B020102014351800A56
:100580007F0F2C0ED8B4425DD8A031D0000E0201EE
:100590000201436F000E0201426F29D00001C66FB5
:1005A000010E02010201476F0001C6510001C66F32
:1005B0003A0E0BD00001C66F010E02010201476F17
:1005C0000001C6510001C66FA30E02010201326F85
:1005D0000001C6510CD0020102014151A80AD8B451
:1005E000DDD7010AD8B4E6D7030AD8B4B1D747C2D9
:1005F000A9F00201020E00010001AB6F0201320EF0
:100600000001AA6FBFEC04F00FD0020102014651B5
:100610000A0AD8B473D7220AD8B497D7010AD8B433
:1006200094D7030AD8B4D7D70001C66F0A0E0001C9
:100630000001C16F0001C6510201020E000100015C
:10064000C36F0201460E0001C26F0201020E0001DB
:100650000001C56F0201320E0001C46FFCEC09F00D
:1006600002010201476F0201020147BF21D74ED0AC
:100670000201020E00010001B06F0201440E0001F0
:10068000AF6F0201000146C2B1F000010001B26B80
:1006900002010201475100010001B36F0001B46B78
:1006A0000001B3BFB4070201020E00010001B66FE2
:1006B0000201320E0001B56F79EC08F0F9D60201A3
:1006C000020E00010001AA6F02013D0E0001A96F98
:1006D0000201000146C2ABF000010001AC6B020157
:1006E0000201475100010001AD6F0001AE6B000136
:1006F000ADBFAE070201020E00010001B06F0201A2
:10070000320E0001AF6F48EC09F0D2D602010201AF
:1007100046510B0AD8B4ACD7150AD8B4D0D7010AC1
:10072000D8B4CDD7C5D6000120EE35F00001B351C5
:10073000D9260001B451DA22DF5000010001BC6F5C
:1007400000010001BC510D0DF35000010001B32563
:1007500000010001BF6FF45000010001B42100014D
:10076000C06F010EBFC0D9FFC0C0DAFFDF626FD01B
:10077000000120EE01F00001BF51D9260001C05157
:10078000DA22DF5000010001B56102D0FD0E120037
:10079000000120EE01F00001BF51D9260001C05137
:1007A000DA22DF500001BA6F0001BA5100010001E6
:1007B000BD6F0001BE6BB8C0A9F0B9C0AAF0030EAE
:1007C00000010001BF250001BA6F000E0001000109
:1007D000C0210001BB6FBAC0ABF0BBC0ACF0BDC064
:1007E000ADF0BEC0AEF02BEC08F0000120EE35F00D
:1007F0000001B351D9260001B451DA22000110EEF4
:1008000035F00001B351E1260001B451E222E75076
:100810000001BA6F0001BA29030BDF6E000120EE60
:1008200002F00001BF51D9260001C051DA22B6C042
:10083000E1FFB7C0E2FFDFCFE7FFBFC0D9FFC0C015
:10084000DAFF000EDF6E00010001BD511200FC0E48
:100850001200000120EE35F000018051D926000180
:100860008151DA22DF5000010001896F000100018F
:1008700089510D0DF3500001000180250001000198
:100880008C6FF45000010001812100018D6F010E79
:100890008CC0D9FF8DC0DAFFDF626FD0000120EE7F
:1008A00001F000018C51D92600018D51DA22DF5070
:1008B00000010001826102D0FD0E1200000120EE55
:1008C00001F000018C51D92600018D51DA22DF5050
:1008D0000001876F00018751000100018A6F00014C
:1008E0008B6B85C02EF086C02FF0030E0001000137
:1008F0008C250001876F000E000100018D21000191
:10090000886F87C030F088C031F08AC032F08BC069
:1009100033F028EC09F0000120EE35F000018051A1
:10092000D92600018151DA22000110EE35F00001D4
:100930008051E12600018151E222E7500001876FDA
:1009400000018729030BDF6E000120EE02F0000199
:100950008C51D92600018D51DA2283C0E1FF84C079
:10096000E2FFDFCFE7FF8CC0D9FF8DC0DAFF000EBA
:10097000DF6E000100018A511200FC0E120000011E
:1009800020EE19F00001C851D9260001C951DA2220
:10099000000EDF6E42D0000120EE19F00001C851B8
:1009A000D9260001C951DA22DF500001AC6F0001E5
:1009B000AC51010DF35000010001AA25D96EF4508D
:1009C00000010001AB21DA6E000110EE19F0000108
:1009D000C851E1260001C951E222E7500001AD6F84
:1009E0000001AD51010D0F0EF326000EF422F3505D
:1009F00000010001C825E16EF45000010001C92189
:100A0000E26EDFCFE7FF000120EE19F00001C851D0
:100A1000D9260001C951DA22DF2A000120EE19F09F
:100A20000001C851D9260001C951DA22DF50000166
:100A3000AC6F00010001A9510001AC5DD8A0ABD79B
:100A4000000120EE19F00001C851D9260001C9515A
:100A5000DA220001A9C0DFFF000120EE1AF0000138
:100A6000C851D9260001C951DA22010EDF6E0001FA
:100A700020EE0FF00001C851D9260001C951DA2239
:100A8000DF50C96EC68812000001000182C086F0E6
:100A900000010001876B000120EE34F0000180515D
:100AA000D92600018151DA22DF5000010001886F50
:100AB0000001000188510D0DF35000010001802557
:100AC00000010001896FF450000100018121000143
:100AD0008A6F89C0D9FF8AC0DAFFDF50D8B402D04C
:100AE000FF0E1200000120EE01F000018951D9260D
:100AF00000018A51DA22000182C0DFFF000120EEEE
:100B000002F000018951D92600018A51DA22000140
:100B100083C0DFFF030E0001000189252E6E000E49
:100B2000000100018A212F6E84C030F085C031F0B1
:100B300086C032F087C033F028EC09F0000120EEC7
:100B400034F000018051D92600018151DA220001E0
:100B500010EE34F000018051E12600018151E222C3
:100B6000E750386E3828030BDF6E89C0D9FF8AC082
:100B7000DAFF010EDF6E010E12008AB002D0010E04
:100B800001D0000E0001936F8A5000019319FE0BF3
:100B900093198A6E000E2F6E000E2E6EDCEC0AF09A
:100BA0000001936F020E000100018E6F000193514E
:100BB0000001000E00010001906F0001970E00017E
:100BC0008F6F0001000E00010001926F0001990E6D
:100BD0000001916F28EC0AF000010001956F0001FF
:100BE000966B000195BF9607000100019551020A1E
:100BF0009611D8A412000001936F020E00010001AB
:100C00008B6F000193510001946F0A0E00010001E7
:100C10008C6F000194510001000E000100018E6FE5
:100C20000001990E00018D6F53EC0AF01200E6EC02
:100C300008F000010001AE510001AD11D8B412005E
:100C40008A860001AF6F010E4E6E0001AF510101A7
:100C5000010E00010001AA6F01016C0E0001A96FD5
:100C600067EC09F00009D8B408D00001AF6F000E9E
:100C70004E6E0001AF518A9612000101010E000173
:100C80000001AA6F0101A20E0001A96F67EC09F033
:100C90000009D8B408D00001AF6F000E4E6E0001FD
:100CA000AF518A9612000001AF6F0A0E00010001D9
:100CB000A96F0001AF51B8EC0AF08AB602D0010E5C
:100CC00001D0000E0001AF6F0001AF47AF47AF4743
:100CD0008A500001AF19F70BAF198A6EB8D70DC053
:100CE00012F0136A20EE34F00B50D9260C50DA22A1
:100CF000DF50146E14500D0DF3500B24156EF4508C
:100D00000C20166E15C0D9FF16C0DAFFDF50D8B41C
:100D100002D0FF0E120020EE01F01550D926165019
:100D2000DA220DC0DFFF20EE02F01550D926165052
:100D3000DA220EC0DFFF030E1524016E000E16200E
:100D4000026E0FC003F010C004F012C005F013C013
:100D500006F008EC09F020EE34F00B50D9260C50C8
:100D6000DA2210EE34F00B50E1260C50E222E7506C
:100D7000116E1128030BDF6E15C0D9FF16C0DAFF04
:100D8000010EDF6E010E1200EACF9EF0E1CF9FF060
:100D9000E2CFA0F0D9CFA1F0DACFA2F0F3CFA3F049
:100DA000F4CFA4F0F6CFA5F0F7CFA6F0F8CFA7F0D8
:100DB000F5CFA8F09EA601D001D004D09E969EEC5F
:100DC00008F000D0F2A401D001D004D0F294BDEC20
:100DD00005F000D09EAC01D001D004D09E9CB6ECB2
:100DE00009F000D09EAA01D001D003D0E5EC09F0B3
:100DF00000D052EC08F0A8C0F5FFA7C0F8FFA6C0CD
:100E0000F7FFA5C0F6FFA4C0F4FFA3C0F3FFA2C084
:100E1000DAFFA1C0D9FFA0C0E2FF9FC0E1FF9EC0E2
:100E2000EAFF9DC0E9FF9CC0FBFF9BC0FAFF1100D9
:100E300000010001AC51AB11D8B43AD00001AD6F44
:100E4000010E00010001AE6F0001AD5109D000019B
:100E500000010001D890AB37AC3700010001AE2B88
:100E600000010001ACAFF3D700010001AB5100015C
:100E70000001A95D00010001AC5100010001AA5967
:100E8000D8A00CD000010001AB5100010001A95F06
:100E900000010001AC5100010001AA5B000100014A
:100EA0000001D890AC33AB3300010001AE2FDCD78A
:100EB000A9C0A9F0AAC0AAF01200000120EE34F0E7
:100EC0000001A951D9260001AA51DA22000EDF6ED5
:100ED000000120EE35F00001A951D9260001AA51E8
:100EE000DA22000EDF6E0001AB6F000E0001000180
:100EF000AC6F0001AB51030E00010001AC6501D0E5
:100F0000120000010001AC510D0DF3500001000171
:100F1000A925D96EF45000010001AA21DA6E000E55
:100F2000DF6E00010001AC2B030E00010001AC6577
:100F3000E8D712000001AD6F000E4E6E0001AD51FA
:100F40000101010E00010001AA6F0101A20E0001C2
:100F5000A96F5DEC07F00101010E00010001AA6F0D
:100F600001016C0E0001A96F5DEC07F00101010E9B
:100F700000010001AA6F0101360E0001A96F5DECAE
:100F800007F00101010E00010001AA6F0101000E2E
:100F90000001A96F5DEC07F01200A9C0C8F0AAC05B
:100FA000C9F0000120EE0AF00001C851D926000165
:100FB000C951DA22000EDF6E000120EE0BF00001B5
:100FC000C851D9260001C951DA22000EDF6E000196
:100FD00020EE0CF00001C851D9260001C951DA22D7
:100FE000050EDF6E000120EE0EF00001C851D9267B
:100FF0000001C951DA22000EDF6E12002EC0C9FFB7
:10100000C6BE1200C6500F0B080AD8B40CD0C6508A
:101010000F0B0B0AD8B407D0C6889EA6FED7C7B45C
:101020001200C7501200C6500F0B080AD8B405D0E2
:10103000C6500F0B0B0AD8A41200C7B0FED7C7309A
:10104000E832010B2F6EC5501F0B2F100009D8A4DA
:10105000F6D7C5501200ABC0B1F0ACC0B2F0A9C019
:10106000AFF0AAC0B0F012D0B1C0D9FFB2C0DAFF61
:10107000AFC0E1FFB0C0E2FFDFCFE7FF000100013A
:10108000B14BB22B00010001AF4BB02B00010001AE
:10109000AD07D8A0AE070001AD29D8B4AE29D8B4A9
:1010A0001200E2D74E6601D01200CEEC09F03150AA
:1010B0003010D8A41200F3EC0AF02F502E10D8B440
:1010C00012000101010E2F6E01016C0E2E6E79ECE3
:1010D0000AF00009D8A412000101010E2F6E0101CF
:1010E000A20E2E6E79EC0AF00009D8B407EC0BF0D2
:1010F000120000010001CA4BCB2B00010001CB51B3
:10110000030AE80ED8B4CA19D8A40AD0C580C5B05D
:10111000FED7000E00010001CB6F000E0001CA6F68
:10112000CAC0A9F0CBC0AAF0000E00010001AC6F4C
:10113000640E0001AB6F18EC07F01200C7A60ED0CA
:10114000000120EE1BF00001C851D9260001C95151
:10115000DA22DF5001092E6EFEEC07F0C7B002D094
:10116000C69A1200C730E832010B306EC5501F0B13
:1011700030100009D8A4F6D7306E000E2E6E305015
:10118000FEEC07F01200F2AC08D0000E00010001E6
:10119000AC6F000E0001AB6F1200C1EC0AF0000151
:1011A0000001AA510001A911D8B408D0000E000115
:1011B0000001AC6F000E0001AB6F1200000E0001C9
:1011C0000001AC6F010E0001AB6F1200C3EC08F020
:1011D00000010001AC510001AB11D8A411D0C1EC49
:1011E0000AF000010001AA510001A911D8A408D0F9
:1011F000000E00010001AE6F010E0001AD6F120084
:10120000000E00010001AE6F000E0001AD6F120074
:1012100003C009F004C00AF001C007F002C008F0E2
:101220000ED009C0D9FF0AC0DAFF07C0E1FF08C02D
:10123000E2FFDFCFE7FF094A0A2A074A082A050624
:10124000D8A006060528D8B40628D8B41200E9D7D5
:1012500030C036F031C037F02EC034F02FC035F03A
:101260000ED036C0D9FF37C0DAFF34C0E1FF35C039
:10127000E2FFDFCFE7FF364A372A344A352A320603
:10128000D8A033063228D8B43328D8B41200E9D70E
:1012900000010001AB511E0AAC11D8B412000001CC
:1012A0000001AB511F0AAC11D8A4120000010001CB
:1012B000AD5100010001AF25D96E00010001AE5112
:1012C00000010001B021DA6E000EDF6E1200000195
:1012D00020EE35F00001A951D9260001AA51DA22E9
:1012E000DF500001AB6F0001AB510D0DF350000159
:1012F0000001A925D96EF45000010001AA21DA6E7F
:10130000DF50120002EE00F0320EEE6AE806FDE158
:1013100001EE00F0D80EEE6AE806FDE10001CB6BAD
:10132000CA6B00EE39F01A0EEE6AE806FDE1000E17
:10133000F86E000103EF02F000010001A9517E0BDD
:10134000CD6E00010001A9AD02D0CD8E01D0CD9EA1
:10135000000ECF6E000ECE6E9E9000010001A9AF70
:1013600002D09D8001D09D90CD801200FEEC0AF04D
:101370002EC044F02FC045F04750800A7F0F2B0E3F
:10138000D8B4465CD8B003D0464A472A1200000EB3
:10139000476E000E466E0AEC0BF01200F2AC05D060
:1013A000000E316E000E306E1200F3EC0AF02F507A
:1013B0002E10D8B405D0000E316E000E306E120023
:1013C000000E316E010E306E1200444A452A0201B1
:1013D000000E4424D96E0201020E4520DA6E9CEC08
:1013E0000AF0DF6E4450310A4510D8A41200000EF6
:1013F000456E000E446E12000101010E0001000155
:10140000B46F0101A20E0001B36FC1C0B5F0C2C03C
:10141000B6F0C3C0B7F0C4C0B8F0C5C0B9F093EC23
:1014200003F012000101010E00010001B46F01017F
:101430006C0E0001B36FC1C0B5F0C2C0B6F0C3C03E
:10144000B7F0C4C0B8F0C5C0B9F093EC03F0120017
:101450000101010E00010001816F0101000E000178
:10146000806F8EC082F08FC083F090C084F091C0F6
:1014700085F092C086F029EC04F012001B6E000E7D
:10148000176E1B501C6E0B0E186E1C50000E1A6E41
:10149000000E196E8BEC0AF0FE0E026E3E0E016E0F
:1014A000D3EC0AF012000101010E00010001816F6E
:1014B00001016C0E0001806F8BC082F08CC083F044
:1014C0008DC084F08EC085F044EC05F012003F0E14
:1014D000C716000EC66E000EC56E00010001A951B0
:1014E000C61200010001AA51C71294869488C68AC8
:1014F000120020EE35F02E50D9262F50DA22DF5080
:10150000306E30500D0DF3502E24D96EF4502F2034
:10151000DA6EDF5012000101010E0C6E0101A20E05
:101520000B6E17C00DF018C00EF019C00FF01AC0E6
:1015300010F06FEC06F01200F20E4F16ABAC03D0B9
:101540004F90ABB04F80ABB44F84ABB24F86AECFB1
:101550002EF02E501200000120EE1BF00001C851A9
:10156000D9260001C951DA220001A9C0DFFF12000B
:10157000FA0E00F0E82EFDD700010001A92FF8D7E0
:101580001200000EF2AE010E00010001A96F000171
:10159000AA6B1200A9C0D9FFAAC0DAFF000EDE6E46
:1015A000000EDD6E120001C003F002C004F004C0A2
:1015B000CFFF03C0CEFF12002EC030F02FC031F09D
:1015C00031C0D7FF30C0D6FF1200ACAC03D0AC9016
:1015D0004FB2AC8001C0ADFF120050C001F0E5EC8D
:1015E0000AF0502A1200000EF2AE010E2E6E2F6A83
:1015F0001200AFC0B1F0B0C0B2F01200C4502F6EF4
:10160000C3502E6E1200D08EF28EF28C1200D38E4A
:0A16100003001200CD909D9012001F
:067FF80080F4C5FFFFF15B
:00000001FF
