:0400000064EF00F0B9
:10000800FACFD2F0FBCFD3F0E9CFD4F0C7EF08F0A6
:10001800D8CF1FF0E8CF20F0E0CF21F0FACF22F0C0
:10002800FBCF23F0E9CF24F0EACF25F0E1CF26F08B
:10003800E2CF27F0D9CF28F0DACF29F0F3CF2AF092
:10004800F4CF2BF0F6CF2CF0F7CF2DF0F8CF2EF021
:10005800F5CF2FF09EA001D001D004D09E9092EC55
:100068000CF000D09EA801D001D007D09DA801D0E7
:1000780001D003D0D0EC0BF000D02FC0F5FF2EC07C
:10008800F8FF2DC0F7FF2CC0F6FF2BC0F4FF2AC0E5
:10009800F3FF29C0DAFF28C0D9FF27C0E2FF26C036
:1000A800E1FF25C0EAFF24C0E9FF23C0FBFF22C00F
:1000B800FAFF21C0E0FF20C0E8FF1FC0D8FF1000F2
:1000C8004AEF0BF00001C66F000E00010001D06F6F
:1000D8000001C6510001C66F000E00010001CB6F80
:1000E8000001C6510001C66F000E00010001CF6F6C
:1000F8000001C6510001C66F000E00010001CD6F5E
:100108000001C6510001C66F000E00010001CC6F4E
:100118000001C651C6AC29D0C69C000120EE0CF0E7
:100128000001E051D9260001E151DA22050EDF6E07
:100138000001C66F010E00010001CC6F0001C6511D
:10014800000120EE0EF00001E051D9260001E15136
:10015800DA22DF2A000120EE0DF00001E051D92655
:100168000001E151DA22040EDF6EC7A00AD0C9CF20
:10017800CEF00001C66F010E00010001D06F000132
:10018800C65100010001CC67CDD1B6D1C7A6CAD1EE
:10019800D0C030F0B3EC07F0000120EE0CF0000105
:1001A800E051D9260001E151DA22080EDF62BAD106
:1001B8000001C66F000E00010001D06F0001C6519A
:1001C8000001C66F010E00010001CD6F87D1C7A8DD
:1001D80030D0000120EE0BF00001E051D9260001DB
:1001E800E151DA22DF2A00010001D051D8B479D1D7
:1001F800C7BA09D00001C66F010E00010001CF6F18
:100208000001C6516ED1000120EE0EF00001E05150
:10021800D9260001E151DA22DF2A000120EE0DF093
:100228000001E051D9260001E151DA22060EDF6E05
:1002380058D100010001D051D8B474D1000120EE8A
:100248000BF00001E051D9260001E151DA22DF2A42
:10025800C7BA19D0C7B40BD0000120EE0CF00001CA
:10026800E051D9260001E151DA22070E76D00001CB
:1002780020EE0CF00001E051D9260001E151DA220C
:10028800080EDF6E1DD1000120EE0EF00001E051D6
:10029800D9260001E151DA22DF2A000120EE0CF014
:1002A8000001E051D9260001E151DA22050EDF6E86
:1002B800000120EE0DF00001E051D9260001E151C6
:1002C800DA22060E4AD0000120EE1AF00001E051B1
:1002D800D9260001E151DA22DF500001C66F000182
:1002E80020EE19F00001E051D9260001E151DA228F
:1002F800DF500001C65DD8B0F4D0000120EE1AF03E
:100308000001E051D9260001E151DA22DF50000155
:10031800C66F0001C651010D0F0EF326000EF42220
:10032800F35000010001E025D96EF45000010001EE
:10033800E121DA6EDF50C96E000120EE1AF00001EB
:10034800E051D9260001E151DA22DF2A0001C66F07
:10035800010E00010001CB6FC1D0DF6EE3D0C7A84A
:1003680062D0000120EE0BF00001E051D926000117
:10037800E151DA22DF2A00010001D051D8B44AD075
:10038800C7AA27D0000120EE0AF00001E051D926C3
:100398000001E151DA22DF500001C66F0001C651A9
:1003A800010DF35000010001E025D96EF450000161
:1003B8000001E121DA6E0001CEC0DFFF000120EE6E
:1003C8000AF00001E051D9260001E151DA22DF2AC2
:1003D80021D0000120EE0EF00001E051D9260001E5
:1003E800E151DA22DF2A000120EE0DF00001E05190
:1003F800D9260001E151DA22060EDF6E000120EE57
:100408000CF00001E051D9260001E151DA22050E75
:10041800DF6E67D00001C66F010E00010001CF6FCB
:100428000001C6515ED000010001D051D8B47AD085
:10043800000120EE0BF00001E051D9260001E15146
:10044800DA22DF2AC7AA27D0000120EE0AF000012D
:10045800E051D9260001E151DA22DF500001C66FD0
:100468000001C651010DF35000010001E025D96ECD
:10047800F45000010001E121DA6E0001CEC0DFFF77
:10048800000120EE0AF00001E051D9260001E151F7
:10049800DA22DF2A47D0C7A4B6D6000120EE0CF036
:1004A8000001E051D9260001E151DA22080EDF6E81
:1004B8000001C66F010E00010001CF6F0001C65197
:1004C8000001C66F010E00010001CD6F0001C65189
:1004D8000001C66F000E00010001D06F0001C65177
:1004E80021D0000120EE0CF00001E051D9260001D6
:1004F800E151DA22050E31D7000120EE0CF000019F
:10050800E051D9260001E151DA22DF50050AD8B4BA
:100518003DD6030AD8B45BD6010AD8B420D70F0A4F
:10052800D8B4D1D600010001D06705D00001000180
:10053800CB51D8B402D0C6A8C688000120EE0AF074
:100548000001E051D9260001E151DA22080EDF64EA
:1005580024D000010001CF6720D0000120EE0CF06C
:100568000001E051D9260001E151DA22050EDF6EC3
:10057800000120EE0EF00001E051D9260001E15102
:10058800DA22DF2A000120EE0DF00001E051D92621
:100598000001E151DA22070EDF6E00010001CF51A0
:1005A800D8B447D0000120EE0BF00001E051D92665
:1005B8000001E151DA22000110EE0AF00001E051D9
:1005C800E1260001E151E222E7500001C66F000177
:1005D800C651010DF35000010001E025E16EF45011
:1005E80000010001E121E26EDFCFE7FF000120EE0C
:1005F8000AF00001E051D9260001E151DA22DF506A
:100608000001C66F0001C62900010001C26F000188
:10061800C76F280E00010001C36F0001C751E0C079
:10062800C4F0E1C0C5F0E4EC0BF0000120EE0AF0E4
:1006380051D0000120EE0EF00001E051D926000152
:10064800E151DA22DF50D8B44DD0000120EE0EF08F
:100658000001E051D9260001E151DA22DF50000102
:100668000001C86F000120EE0DF00001E051D9260D
:100678000001E151DA22DF5000010001C96F0001D9
:1006880020EE0BF00001E051D9260001E151DA22F9
:10069800DF5000010001CA6F0001C66F030E0001A0
:1006A8000001C26F0001C6510001C76F290E000189
:1006B8000001C36F0001C7510001000E00010001D5
:1006C800C56F0001C80E0001C46FE4EC0BF0000117
:1006D80020EE0EF00001E051D9260001E151DA22A6
:1006E800000EDF6E00010001CD51D8B412000001E8
:1006F800C66F000E00010001C26F0001C651000163
:10070800C76F2A0E00010001C36F0001C751E0C086
:10071800C4F0E1C0C5F0E4EC0BF01200000E0101DA
:100728000101C36F000E0101C26F0101BF6F000E0E
:1007380001010101DB6F0101BF51820ED36E9B9C49
:100748000101010E01010101A36F0101D60E010192
:10075800A26F2FEC0CF00101010E01010101A36F42
:100768000101DE0E0101A26F98EC09F00101010EF2
:1007780001010101A36F0101D40E0101A26F60EC18
:100788000CF0D4EC09F0000E936E000E8A6E010195
:10079800BF6FF50E01010101A26F0101BF5130ECDD
:1007A8000BF00101BF6F2A0E01010101A26F0101C7
:1007B800BF510BEC0CF08EEC0CF09F909F869D8641
:1007C8000101BF6FD50E01010101A26F0101BF51E7
:1007D8000101C06F840E01010101A36F0101C05125
:1007E8000101C16FFF0E01010101A46F0101C15197
:1007F8001BEC09F06FEC08F00101BF6F0A0E010154
:100808000101BA6F0101BF510101010E010101018E
:10081800BC6F0101DD0E0101BB6F0101010E010179
:100828000101BE6F0101C90E0101BD6F8EEC0BF015
:1008380001010101DC6F01010101DCBF7FD06FD034
:100848000101010E01010101A36F0101C70E0101A0
:10085800A26F01010101DDC1A4F101010101A56B34
:1008680001010101DC5101010101A66F0101A76B22
:100878000101A6BFA7070101010E01010101A96F2E
:100888000101C90E0101A86F80EC0CF057D0C9C155
:10089800C4F154D00101BF6F060E01010101DC6FE4
:1008A8000101BF510101BF6F1E0E01010101C96F96
:1008B8000101BF5101010101DB51210F01010101BA
:1008C800CA6F0101BF6F280E01010101CB6F010141
:1008D800BF5101010101DB512B0F01010101CC6F57
:1008E80001010101DB512C0F01010101CD6F010153
:1008F8000101DB512D0F01010101CE6F0101010141
:10090800DB2BDCC1A2F10101010E01010101A46F81
:100918000101C90E0101A36F4DEC06F00FD00101D2
:100928000101DD510A0AD8B48BD7220AD8B4AFD74F
:10093800010AD8B4ACD7030AD8B4ACD70101BF6F49
:100948000A0E01010101BA6F0101BF510101010E37
:1009580001010101BC6F0101DD0E0101BB6F010145
:10096800010E01010101BE6F0101C90E0101BD6F38
:1009780078EC0BF001010101DC6F01010101DCBF22
:1009880039D74ED00101010E01010101A36F010108
:10099800D40E0101A26F01010101DDC1A4F1010121
:1009A8000101A56B01010101DC5101010101A66FE3
:1009B8000101A76B0101A6BFA7070101010E0101F3
:1009C8000101A96F0101C90E0101A86F8AEC0CF0A1
:1009D80011D70101010E01010101A36F0101C50E2B
:1009E8000101A26F01010101DDC1A4F101010101B1
:1009F800A56B01010101DC5101010101A66F010193
:100A0800A76B0101A6BFA7070101010E01010101A2
:100A1800A96F0101C90E0101A86FDAEC0AF0EAD644
:100A280001010101DD510B0AD8B4ACD7150AD8B4BD
:100A3800D0D7010AD8B4CDD7DDD6010120EE35F0E4
:100A48000101AC51D9260101AD51DA22DF50010173
:100A58000101B56F01010101B5510D0DF3500101FF
:100A68000101AC2501010101B86FF4500101010138
:100A7800AD210101B96F010EB8C1D9FFB9C1DAFFC3
:100A8800DF626FD0010120EE01F00101B851D926D3
:100A98000101B951DA22DF5001010101AE6102D032
:100AA800FD0E1200010120EE01F00101B851D92616
:100AB8000101B951DA22DF500101B36F0101B351CD
:100AC80001010101B66F0101B76BB1C1A2F1B2C159
:100AD800A3F1030E01010101B8250101B36F000E56
:100AE80001010101B9210101B46FB3C1A4F1B4C17D
:100AF800A5F1B6C1A6F1B7C1A7F107EC0AF001014B
:100B080020EE35F00101AC51D9260101AD51DA22B0
:100B1800010110EE35F00101AC51E1260101AD51A2
:100B2800E222E7500101B36F0101B329030BDF6E25
:100B3800010120EE02F00101B851D9260101B95195
:100B4800DA22AFC1E1FFB0C1E2FFDFCFE7FFB8C1F2
:100B5800D9FFB9C1DAFF000EDF6E01010101B651FC
:100B68001200FC0E1200000120EE35F00001B75112
:100B7800D9260001B851DA22DF5000010001C06F08
:100B880000010001C0510D0DF35000010001B7250F
:100B980000010001C36FF45000010001B8210001F9
:100BA800C46F010EC3C0D9FFC4C0DAFFDF626FD0C3
:100BB800000120EE01F00001C351D9260001C45103
:100BC800DA22DF5000010001B96102D0FD0E1200E7
:100BD800000120EE01F00001C351D9260001C451E3
:100BE800DA22DF500001BE6F0001BE510001000192
:100BF800C16F0001C26BBCC030F0BDC031F0030E44
:100C080000010001C3250001BE6F000E00010001B4
:100C1800C4210001BF6FBEC032F0BFC033F0C1C0F5
:100C280034F0C2C035F0BAEC0AF0000120EE35F01D
:100C38000001B751D9260001B851DA22000110EE9F
:100C480035F00001B751E1260001B851E222E75022
:100C58000001BE6F0001BE29030BDF6E000120EE0C
:100C680002F00001C351D9260001C451DA22BAC0EA
:100C7800E1FFBBC0E2FFDFCFE7FFC3C0D9FFC4C0BD
:100C8800DAFF000EDF6E00010001C1511200FC0EF8
:100C98001200000120EE19F00001E051D9260001F0
:100CA800E151DA22000EDF6E42D0000120EE19F089
:100CB8000001E051D9260001E151DA22DF5001019B
:100CC800A56F0101A551010DF35001010101A325F3
:100CD800D96EF45001010101A421DA6E000110EE71
:100CE80019F00001E051E1260001E151E222E7504C
:100CF8000101A66F0101A651010D0F0EF326000E8A
:100D0800F422F35000010001E025E16EF4500001E7
:100D18000001E121E26EDFCFE7FF000120EE19F0CC
:100D28000001E051D9260001E151DA22DF2A000151
:100D380020EE19F00001E051D9260001E151DA2234
:100D4800DF500101A56F01010101A2510101A55D5B
:100D5800D8A0ABD7000120EE19F00001E051D92648
:100D68000001E151DA220101A2C1DFFF000120EEFA
:100D78001AF00001E051D9260001E151DA22010EF2
:100D8800DF6E000120EE0FF00001E051D9260001CE
:100D9800E151DA22DF50C96EC68812000001000155
:100DA800B9C0BDF000010001BE6B000120EE34F0B7
:100DB8000001B751D9260001B851DA22DF500001ED
:100DC8000001BF6F00010001BF510D0DF35000017C
:100DD8000001B72500010001C06FF45000010001B7
:100DE800B8210001C16FC0C0D9FFC1C0DAFFDF5010
:100DF800D8B402D0FF0E1200000120EE01F000016D
:100E0800C051D9260001C151DA220001B9C0DFFF63
:100E1800000120EE02F00001C051D9260001C151A5
:100E2800DA220001BAC0DFFF030E00010001C0256D
:100E3800306E000E00010001C121316EBBC032F0DE
:100E4800BCC033F0BDC034F0BEC035F0BAEC0AF017
:100E5800000120EE34F00001B751D9260001B85145
:100E6800DA22000110EE34F00001B751E12600014A
:100E7800B851E222E7503A6E3A28030BDF6EC0C041
:100E8800D9FFC1C0DAFF010EDF6E010E120020EE9D
:100E980035F00B50D9260C50DA22DF50146E14505E
:100EA8000D0DF3500B24176EF4500C20186E010E24
:100EB80017C0D9FF18C0DAFFDF624FD020EE01F06B
:100EC8001750D9261850DA22DF500D6002D0FD0ED7
:100ED800120020EE01F01750D9261850DA22DF5000
:100EE800126E1250156E166A10C001F011C002F091
:100EF800030E1724126E000E1820136E12C003F092
:100F080013C004F015C005F016C006F09AEC0AF0FC
:100F180020EE35F00B50D9260C50DA2210EE35F0C1
:100F28000B50E1260C50E222E750126E1228030BF8
:100F3800DF6E20EE02F01750D9261850DA220EC0C4
:100F4800E1FF0FC0E2FFDFCFE7FF17C0D9FF18C0EE
:100F5800DAFF000EDF6E15501200FC0E12000001C1
:100F680020EE0BF00001E051D9260001E151DA2210
:100F7800010EDF6E000120EE0AF00001E051D926D3
:100F88000001E151DA22000EDF6E3050D8B43DD0B6
:100F9800C7AA21D0000120EE0CF00001E051D926AB
:100FA8000001E151DA22050EDF6E000120EE0EF09D
:100FB8000001E051D9260001E151DA22DF2A0001BF
:100FC80020EE0DF00001E051D9260001E151DA22AE
:100FD800050EDF6E1200C7A40CD0000120EE0CF045
:100FE8000001E051D9260001E151DA22080EDF6E36
:100FF8001200000120EE0CF00001E051D92600019A
:10100800E151DA22070EDF6E1200000120EE0CF02B
:101018000001E051D9260001E151DA22060EDF6E07
:1010280012008AB002D0010E01D0000E0001CA6F72
:101038008A500001CA19FE0BCA198A6E000E316E59
:10104800000E306E69EC0CF00001CA6F020E000150
:101058000001C56F0001CA510001000E0001000126
:10106800C76F0001CE0E0001C66F0001000E00011F
:101078000001C96F0001D00E0001C86FBAEC0BF077
:1010880000010001CC6F0001CD6B0001CCBFCD0782
:1010980000010001CC51020ACD11D8A412000001B0
:1010A800CA6F020E00010001C26F0001CA5100019F
:1010B800CB6F0A0E00010001C36F0001CB51000184
:1010C800000E00010001C56F0001D00E0001C46FC1
:1010D800E4EC0BF0120078EC0AF001010101A751D1
:1010E8000101A611D8B412008A860101A86F010E69
:1010F800416E0101A8510101010E01010101A36F17
:1011080001016C0E0101A26F15EC0BF00009D8B4B7
:1011180008D00101A86F000E416E0101A8518A96FE
:1011280012000001000E01010101A36F0001810EF0
:101138000101A26F15EC0BF00009D8B408D0010129
:10114800A86F000E416E0101A8518A961200010194
:10115800A86F0A0E01010101A26F0101A8514EEC0E
:101168000CF08AB602D0010E01D0000E0101A86F62
:101178000101A847A847A8478A500101A819F70BF9
:10118800A8198A6EB8D7EACFD5F0E1CFD6F0E2CF6A
:10119800D7F0D9CFD8F0DACFD9F0F3CFDAF0F4CF4F
:1011A800DBF0F6CFDCF0F7CFDDF0F8CFDEF0F5CFEF
:1011B800DFF09EA601D001D004D09E9666EC00F028
:1011C80000D0F2A401D001D004D0F29415EC08F0BC
:1011D80000D09EAC01D001D004D09E9CA4EC0BF0B2
:1011E80000D09EAA01D001D003D0F9EC0AF000D0BB
:1011F8002EEC0AF0DFC0F5FFDEC0F8FFDDC0F7FF18
:10120800DCC0F6FFDBC0F4FFDAC0F3FFD9C0DAFFB9
:10121800D8C0D9FFD7C0E2FFD6C0E1FFD5C0EAFFEA
:10122800D4C0E9FFD3C0FBFFD2C0FAFF1100000E03
:10123800C26E000EC06E01010101D890A3313C0BB3
:10124800C26EA3C1A5F10101A53BF00EA517300E92
:101258000101A51701010101A4510F0B0101A511FD
:10126800C16EA2C1A5F10101D890A5370101D8909E
:10127800A537380E0101A517A2C1A6F10101A63BA9
:101288000F0EA617070E0101A61701010101A251B1
:10129800800B0101A6110101A511C06E0101010118
:1012A800A3AF03D09E9C9D8CF28CC28012000101DA
:1012B80020EE34F00101A251D9260101A351DA220E
:1012C800000EDF6E010120EE35F00101A251D92692
:1012D8000101A351DA22000EDF6E0101A46F000E96
:1012E80001010101A56F0101A451030E01010101D2
:1012F800A56501D0120001010101A5510D0DF350A2
:1013080001010101A225D96EF45001010101A321B7
:10131800DA6E000EDF6E01010101A52B030E01013B
:101328000101A565E8D71200A2C1E0F0A3C1E1F070
:10133800000120EE0AF00001E051D9260001E15138
:10134800DA22000EDF6E000120EE0BF00001E05102
:10135800D9260001E151DA22000EDF6E000120EEED
:101368000CF00001E051D9260001E151DA22050E06
:10137800DF6E000120EE0EF00001E051D9260001D9
:10138800E151DA22000EDF6E000120EE19F00001B3
:10139800E051D9260001E151DA22000EDF6E120079
:1013A8000101A66F000E416E0101A6510001000E59
:1013B80001010101A36F0001810E0101A26F5BEC25
:1013C80009F00101010E01010101A36F01016C0E79
:1013D8000101A26F5BEC09F00101010E010101019D
:1013E800A36F0101360E0101A26F5BEC09F0010148
:1013F800010E01010101A36F0101000E0101A26F9D
:101408005BEC09F01200A4C1AAF1A5C1ABF1A2C11D
:10141800A8F1A3C1A9F112D0AAC1D9FFABC1DAFFC3
:10142800A8C1E1FFA9C1E2FFDFCFE7FF0101010188
:10143800AA4BAB2B01010101A84BA92B010101010A
:10144800A607D8A0A7070101A629D8B4A729D8B408
:101458001200E2D7416601D0120061EC0BF0335064
:101468003210D8A412007AEC0CF031503010D8B4F5
:1014780012000101010E316E01016C0E306E1DEC7F
:101488000CF00009D8A412000001000E316E000112
:10149800810E306E1DEC0CF00009D8B495EC0CF000
:1014A8001200F2AC08D0000E01010101A56F000E78
:1014B8000101A46F120057EC0CF001010101A351C6
:1014C8000101A211D8B408D0000E01010101A56FD5
:1014D800000E0101A46F1200000E01010101A56FA9
:1014E800010E0101A46F120055EC0AF0010101017F
:1014F800A5510101A411D8A411D057EC0CF0010199
:101508000101A3510101A211D8A408D0000E0101C4
:101518000101A76F010E0101A66F1200000E010163
:101528000101A76F000E0101A66F120003C009F0A8
:1015380004C00AF001C007F002C008F00ED009C0CC
:10154800D9FF0AC0DAFF07C0E1FF08C0E2FFDFCF1A
:10155800E7FF094A0A2A074A082A0506D8A0060604
:101568000528D8B40628D8B41200E9D732C038F014
:1015780033C039F030C036F031C037F00ED038C043
:10158800D9FF39C0DAFF36C0E1FF37C0E2FFDFCF4D
:10159800E7FF384A392A364A372A3406D8A03506AA
:1015A8003428D8B43528D8B41200E9D7010101018C
:1015B800A4511E0AA511D8B4120001010101A451B9
:1015C8001F0AA511D8A4120001010101A6510101A9
:1015D8000101A825D96E01010101A75101010101ED
:1015E800A921DA6E000EDF6E12003FEC0CF0446E9B
:1015F8000001C66F010E00010001C26F0001C65153
:101608000001C76F280E00010001C36F0001C75118
:10161800000144C0C4F000010001C56BE4EC0BF00C
:101628001200010120EE35F00101A251D926010175
:10163800A351DA22DF500101A46F0101A4510D0D5D
:10164800F35001010101A225D96EF45001010101F5
:10165800A321DA6EDF50120001010101A2517E0BB5
:10166800CD6E01010101A2AD02D0CD8E01D0CD9E7B
:10167800000ECF6E000ECE6E9E9001010101A2AF4A
:1016880002D09D8001D09D90CD80120001EE00F027
:10169800A20EEE6AE806FDE100EE80F0370EEE6A73
:1016A800E806FDE100EE3BF0160EEE6AE806FDE105
:1016B800000EF86E000192EF03F0F2AC05D0000EB8
:1016C800336E000E326E12007AEC0CF0315030108E
:1016D800D8B405D0000E336E000E326E1200000E24
:1016E800336E010E326E12000001000E010101017D
:1016F800AD6F0001810E0101AC6FBAC1AEF1BBC183
:10170800AFF1BCC1B0F1BDC1B1F1BEC1B2F121ECC4
:1017180005F012000101010E01010101AD6F010187
:101728006C0E0101AC6FBAC1AEF1BBC1AFF1BCC167
:10173800B0F1BDC1B1F1BEC1B2F121EC05F01200AA
:1017480085EC0CF030C03BF031C03CF03E50800AD4
:101758007F0F2B0ED8B43D5CD8B003D03D4A3E2A4B
:101768001200000E3E6E000E3D6E12000101010EC9
:1017780000010001B86F0101000E0001B76FC5C07C
:10178800B9F0C6C0BAF0C7C0BBF0C8C0BCF0C9C089
:10179800BDF0B7EC05F012001E6E0A0E196E1E5051
:1017A800000E1B6E500E1A6E000E1D6E450E1C6E3E
:1017B800F8EC0BF045C001F072EC0CF09D981200AB
:1017C8000101010E00010001B86F01016C0E00015A
:1017D800B76FC2C0B9F0C3C0BAF0C4C0BBF0C5C0CF
:1017E800BCF0D2EC06F012000101010E0C6E0101F2
:1017F800000E0B6E19C00DF01AC00EF01BC00FF0D2
:101808001CC010F01DC011F04BEC07F012009486BC
:101818009488A2C1C8FF000EC76E000EC66E000EE7
:10182800C56E0E0EC612C78E94869488C580C68A69
:10183800120020EE35F03050D9263150DA22DF5030
:10184800326E32500D0DF3503024D96EF4503120E1
:10185800DA6EDF501200A2C1E2F0A3C1E3F000018A
:1018680020EE04F00001E251D9260001E351DA220A
:10187800000EDF6E1200F20E4216ABAC03D042909F
:10188800ABB04280ABB44284ABB24286AECF30F04C
:1018980030501200FA0E00F0E82EFDD701010101C8
:1018A800A22FF8D71200000EF2AE010E01010101BD
:1018B800A26F0101A36B1200A2C1D9FFA3C1DAFF75
:1018C800000EDE6E000EDD6E120030C032F031C048
:1018D80033F033C0D7FF32C0D6FF1200ACAC03D010
:1018E800AC9042B2AC8001C0ADFF1200000EF2AE67
:1018F800010E306E316A1200A8C1AAF1A9C1ABF17C
:101908001200C450316EC350306E12000001000145
:10191800802B1200D08EF28EF28C120098EC0CF014
:0C1928001200D38E03001200C2821200D5
:067FF80080F4C5FFFFF15B
:00000001FF
