:0400000064EF00F0B9
:10000800FACF85F0FBCF86F0E9CF87F011ED09F044
:10001800D8CF1FF0E8CF20F0E0CF21F0FACF22F0C0
:10002800FBCF23F0E9CF24F0EACF25F0E1CF26F08B
:10003800E2CF27F0D9CF28F0DACF29F0F3CF2AF092
:10004800F4CF2BF0F6CF2CF0F7CF2DF0F8CF2EF021
:10005800F5CF2FF09EA001D001D004D09E901DECCA
:100068000CF000D09EA801D001D007D09DA801D0E7
:1000780001D003D032EC0CF000D02FC0F5FF2EC019
:10008800F8FF2DC0F7FF2CC0F6FF2BC0F4FF2AC0E5
:10009800F3FF29C0DAFF28C0D9FF27C0E2FF26C036
:1000A800E1FF25C0EAFF24C0E9FF23C0FBFF22C00F
:1000B800FAFF21C0E0FF20C0E8FF1FC0D8FF1000F2
:1000C800C4EF0BF000017A6F000E00010001846F8D
:1000D80000017A5100017A6F000E000100017F6F64
:1000E80000017A5100017A6F000E00010001836F50
:1000F80000017A5100017A6F000E00010001816F42
:1001080000017A5100017A6F000E00010001806F32
:1001180000017A51C6AC29D0C69C000120EE0CF033
:100128000001B651D9260001B751DA22050EDF6E5B
:1001380000017A6F010E00010001806F00017A5101
:10014800000120EE0EF00001B651D9260001B7518A
:10015800DA22DF2A000120EE0DF00001B651D9267F
:100168000001B751DA22040EDF6EC7A00AD0C9CF4A
:1001780082F000017A6F010E00010001846F000116
:100188007A51000100018067CDD1B6D1C7A6CAD186
:1001980084C060F0A9EC07F0000120EE0CF000012B
:1001A800B651D9260001B751DA22080EDF62BAD15A
:1001B80000017A6F000E00010001846F00017A517E
:1001C80000017A6F010E00010001816F87D1C7A875
:1001D80030D0000120EE0BF00001B651D926000105
:1001E800B751DA22DF2A000100018451D8B479D14D
:1001F800C7BA09D000017A6F010E00010001836FB0
:1002080000017A516ED1000120EE0EF00001B651C6
:10021800D9260001B751DA22DF2A000120EE0DF0BD
:100228000001B651D9260001B751DA22060EDF6E59
:1002380058D1000100018451D8B474D1000120EED6
:100248000BF00001B651D9260001B751DA22DF2A96
:10025800C7BA19D0C7B40BD0000120EE0CF00001CA
:10026800B651D9260001B751DA22070E76D000011F
:1002780020EE0CF00001B651D9260001B751DA2260
:10028800080EDF6E1DD1000120EE0EF00001B65100
:10029800D9260001B751DA22DF2A000120EE0CF03E
:1002A8000001B651D9260001B751DA22050EDF6EDA
:1002B800000120EE0DF00001B651D9260001B7511A
:1002C800DA22060E4AD0000120EE1AF00001B651DB
:1002D800D9260001B751DA22DF5000017A6F0001F8
:1002E80020EE19F00001B651D9260001B751DA22E3
:1002F800DF5000017A5DD8B0F4D0000120EE1AF08A
:100308000001B651D9260001B751DA22DF500001A9
:100318007A6F00017A51010D0F0EF326000EF422B8
:10032800F35000010001B625D96EF4500001000118
:10033800B721DA6EDF50C96E000120EE1AF0000115
:10034800B651D9260001B751DA22DF2A00017A6FA7
:10035800010E000100017F6FC1D0DF6EE3D0C7A896
:1003680062D0000120EE0BF00001B651D926000141
:10037800B751DA22DF2A000100018451D8B44AD0EB
:10038800C7AA27D0000120EE0AF00001B651D926ED
:100398000001B751DA22DF5000017A6F00017A516B
:1003A800010DF35000010001B625D96EF45000018B
:1003B8000001B721DA6E000182C0DFFF000120EEE4
:1003C8000AF00001B651D9260001B751DA22DF2A16
:1003D80021D0000120EE0EF00001B651D92600010F
:1003E800B751DA22DF2A000120EE0DF00001B651E4
:1003F800D9260001B751DA22060EDF6E000120EE81
:100408000CF00001B651D9260001B751DA22050EC9
:10041800DF6E67D000017A6F010E00010001836F63
:1004280000017A515ED0000100018451D8B47AD01D
:10043800000120EE0BF00001B651D9260001B7519A
:10044800DA22DF2AC7AA27D0000120EE0AF000012D
:10045800B651D9260001B751DA22DF5000017A6F70
:1004680000017A51010DF35000010001B625D96E43
:10047800F45000010001B721DA6E000182C0DFFFED
:10048800000120EE0AF00001B651D9260001B7514B
:10049800DA22DF2A47D0C7A4B6D6000120EE0CF036
:1004A8000001B651D9260001B751DA22080EDF6ED5
:1004B80000017A6F010E00010001836F00017A517B
:1004C80000017A6F010E00010001816F00017A516D
:1004D80000017A6F000E00010001846F00017A515B
:1004E80021D0000120EE0CF00001B651D926000100
:1004F800B751DA22050E31D7000120EE0CF00001C9
:10050800B651D9260001B751DA22DF50050AD8B40E
:100518003DD6030AD8B45BD6010AD8B420D70F0A4F
:10052800D8B4D1D600010001846705D000010001CC
:100538007F51D8B402D0C6A8C688000120EE0AF0C0
:100548000001B651D9260001B751DA22080EDF643E
:1005580024D000010001836720D0000120EE0CF0B8
:100568000001B651D9260001B751DA22050EDF6E17
:10057800000120EE0EF00001B651D9260001B75156
:10058800DA22DF2A000120EE0DF00001B651D9264B
:100598000001B751DA22070EDF6E00010001835116
:1005A800D8B447D0000120EE0BF00001B651D9268F
:1005B8000001B751DA22000110EE0AF00001B6512D
:1005C800E1260001B751E222E75000017A6F0001ED
:1005D8007A51010DF35000010001B625E16EF45087
:1005E80000010001B721E26EDFCFE7FF000120EE36
:1005F8000AF00001B651D9260001B751DA22DF50BE
:1006080000017A6F00017A2900010001766F00016C
:100618007B6F280E00010001776F00017B51B6C087
:1006280078F0B7C079F046EC0CF0000120EE0AF043
:1006380051D0000120EE0EF00001B651D92600017C
:10064800B751DA22DF50D8B44DD0000120EE0EF0B9
:100658000001B651D9260001B751DA22DF50000156
:1006680000017C6F000120EE0DF00001B651D92683
:100678000001B751DA22DF50000100017D6F00014F
:1006880020EE0BF00001B651D9260001B751DA224D
:10069800DF50000100017E6F00017A6F030E000138
:1006A8000001766F00017A5100017B6F290E00016D
:1006B8000001776F00017B510001000E000100016D
:1006C800796F00017C0E0001786F46EC0CF0000198
:1006D80020EE0EF00001B651D9260001B751DA22FA
:1006E800000EDF6E000100018151D8B416D0000160
:1006F8007A6F000E00010001766F00017A51000147
:100708007B6F2A0E00010001776F00017B51B6C094
:1007180078F0B7C079F046EC0CF01200000E010139
:100728000101E96F000E0101E86FFC0ED36E9B8C8E
:100738000101010E00010001946F0101EA0E0001A0
:10074800936FBCEC0CF09EEC09F0000E936E000E5B
:100758008A6E0001B06FF50E00010001936F000171
:10076800B05178EC0BF0FE0E00010001946F3E0EC4
:100778000001936FB3EC0CF00001B06F080E00019C
:100788000001936F0001B0510001B16F800E0001AC
:100798000001946F0001B1516DEC0CF0FBEC0CF012
:1007A8009F909F869D8667EC08F00001B06F0A0E47
:1007B80000010001AB6F0001B0510101010E000101
:1007C8000001AD6F0101EC0E0001AC6F0101010EDB
:1007D80000010001AF6F0101D80E0001AE6FF1EC0E
:1007E8000BF001010101ED6F01010101EDBF97D08F
:1007F80087D00101010E00010001946F0101E50E8F
:100808000001936F01010001ECC195F000010001A6
:10081800966B01010101ED5100010001976F000184
:10082800986B000197BF98070101010E00010001B4
:100838009A6F0101D80E0001996FF6EC0CF06FD099
:10084800D8C1E7F16CD00001B06F020E01010101BF
:10085800ED6F0001B0510001B06FAA0E0101010156
:10086800D96F0001B05101010101E84BE92B0101E9
:100878000101E951800A7F0F2C0ED8B4E85DD8A099
:1008880031D0000E01010101E96F000E0101E86F8E
:1008980029D00001B06F010E01010101ED6F0001C7
:1008A800B0510001B06F3A0E0BD00001B06F010ECD
:1008B80001010101ED6F0001B0510001B06FA30EFD
:1008C80001010101D86F0001B0510CD001010101F3
:1008D800E751A80AD8B4DDD7010AD8B4E6D7030A85
:1008E800D8B4B1D7EDC193F00101010E00010001A8
:1008F800956F0101D80E0001946F3EEC06F00FD001
:1009080001010101EC510A0AD8B473D7220AD8B4FC
:1009180097D7010AD8B494D7030AD8B4D7D7000117
:10092800B06F0A0E00010001AB6F0001B051010168
:10093800010E00010001AD6F0101EC0E0001AC6F6A
:100948000101010E00010001AF6F0101D80E000185
:10095800AE6FDBEC0BF001010101ED6F010101014C
:10096800EDBF21D74ED00101010E00010001966FA5
:100978000101EA0E0001956F01010001ECC197F039
:1009880000010001986B01010101ED510001000116
:10099800996F00019A6B000199BF9A070101010E36
:1009A800000100019C6F0101D80E00019B6F08EC4B
:1009B8000AF0F9D60101010E00010001946F01014E
:1009C800E30E0001936F01010001ECC195F00001F5
:1009D8000001966B01010101ED5100010001976FC3
:1009E8000001986B000197BF98070101010E0001F3
:1009F80000019A6F0101D80E0001996F07EC0BF006
:100A0800D2D601010101EC510B0AD8B4ACD7150AB2
:100A1800D8B4D0D7010AD8B4CDD7C5D6000120EEB6
:100A280035F000019D51D92600019E51DA22DF5090
:100A380000010001A66F00010001A6510D0DF35041
:100A4800000100019D2500010001A96FF45000017B
:100A580000019E210001AA6F010EA9C0D9FFAAC0FA
:100A6800DAFFDF626FD0000120EE01F00001A9512A
:100A7800D9260001AA51DA22DF50000100019F6146
:100A880002D0FD0E60D0000120EE01F00001A95156
:100A9800D9260001AA51DA22DF500001A46F000113
:100AA800A45100010001A76F0001A86BA2C093F038
:100AB800A3C094F0030E00010001A9250001A46F52
:100AC800000E00010001AA210001A56FA4C095F045
:100AD800A5C096F0A7C097F0A8C098F033EC0AF02C
:100AE800000120EE35F000019D51D92600019E51EC
:100AF800DA22000110EE35F000019D51E1260001D7
:100B08009E51E222E7500001A46F0001A429030BC3
:100B1800DF6E000120EE02F00001A951D926000184
:100B2800AA51DA22A0C0E1FFA1C0E2FFDFCFE7FFB0
:100B3800A9C0D9FFAAC0DAFF000EDF6E00010001CC
:100B4800A75101D0FC0E1200000120EE35F0000183
:100B58006A51D92600016B51DA22DF5000010001E9
:100B6800736F0001000173510D0DF3500001000176
:100B78006A2500010001766FF450000100016B2125
:100B88000001776F010E76C0D9FF77C0DAFFDF6208
:100B98006FD0000120EE01F000017651D926000146
:100BA8007751DA22DF50000100016C6102D0FD0E9E
:100BB80060D0000120EE01F000017651D926000135
:100BC8007751DA22DF500001716F00017151000185
:100BD8000001746F0001756B6FC060F070C061F048
:100BE800030E0001000176250001716F000E00015F
:100BF800000177210001726F71C062F072C063F06A
:100C080074C064F075C065F05AEC0AF0000120EE7B
:100C180035F000016A51D92600016B51DA22000132
:100C280010EE35F000016A51E12600016B51E22215
:100C3800E7500001716F00017129030BDF6E00019D
:100C480020EE02F000017651D92600017751DA2210
:100C58006DC0E1FF6EC0E2FFDFCFE7FF76C0D9FFCE
:100C680077C0DAFF000EDF6E00010001745101D079
:100C7800FC0E1200000120EE19F00001B651D92631
:100C88000001B751DA22000EDF6E42D0000120EEDB
:100C980019F00001B651D9260001B751DA22DF5008
:100CA8000001966F00019651010DF35000010001FB
:100CB8009425D96EF450000100019521DA6E0001E7
:100CC80010EE19F00001B651E1260001B751E222F9
:100CD800E7500001976F00019751010D0F0EF326A1
:100CE800000EF422F35000010001B625E16EF45025
:100CF80000010001B721E26EDFCFE7FF000120EE1F
:100D080019F00001B651D9260001B751DA22DF2ABD
:100D1800000120EE19F00001B651D9260001B751A3
:100D2800DA22DF500001966F0001000193510001A3
:100D3800965DD8A0ABD7000120EE19F00001B6519E
:100D4800D9260001B751DA22000193C0DFFF000164
:100D580020EE1AF00001B651D9260001B751DA2267
:100D6800010EDF6E000120EE0FF00001B651D9260A
:100D78000001B751DA22DF50C96EC688120000019F
:100D880000016CC071F000010001726B000120EEDF
:100D980034F000016A51D92600016B51DA22DF5084
:100DA80000010001736F0001000173510D0DF35034
:100DB800000100016A2500010001746FF450000170
:100DC80000016B210001756F74C0D9FF75C0DAFF8F
:100DD800DF50D8B402D0FF0E4FD0000120EE01F052
:100DE80000017451D92600017551DA2200016CC046
:100DF800DFFF000120EE02F000017451D926000146
:100E08007551DA2200016DC0DFFF030E00010001F9
:100E1800742500010001606F000E000100017521BA
:100E28000001616F6EC062F06FC063F071C064F062
:100E380072C065F05AEC0AF0000120EE34F00001AF
:100E48006A51D92600016B51DA22000110EE34F004
:100E580000016A51E12600016B51E222E7500001CE
:100E6800706F00017029030BDF6E74C0D9FF75C065
:100E7800DAFF010EDF6E010E120020EE35F00B5086
:100E8800D9260C50DA22DF50146E14500D0DF35091
:100E98000B24176EF4500C20186E010E17C0D9FFE2
:100EA80018C0DAFFDF624FD020EE01F01750D926C4
:100EB8001850DA22DF500D6002D0FD0E45D020EE2A
:100EC80001F01750D9261850DA22DF50126E12504E
:100ED800156E166A10C001F011C002F0030E172437
:100EE800126E000E1820136E12C003F013C004F027
:100EF80015C005F016C006F0E7EC0AF020EE35F054
:100F08000B50D9260C50DA2210EE35F00B50E126A2
:100F18000C50E222E750126E1228030BDF6E20EE0F
:100F280002F01750D9261850DA220EC0E1FF0FC080
:100F3800E2FFDFCFE7FF17C0D9FF18C0DAFF000EC6
:100F4800DF6E155001D0FC0E1200000120EE0BF0F0
:100F58000001B651D9260001B751DA22010EDF6E21
:100F6800000120EE0AF00001B651D9260001B75160
:100F7800DA22000EDF6E000100016051D8B43AD0C9
:100F8800C7AA20D0000120EE0CF00001B651D926E6
:100F98000001B751DA22050EDF6E000120EE0EF0D7
:100FA8000001B651D9260001B751DA22DF2A000123
:100FB80020EE0DF00001B651D9260001B751DA2212
:100FC800050E22D0C7A40BD0000120EE0CF00001C2
:100FD800B651D9260001B751DA22080E15D0000102
:100FE80020EE0CF00001B651D9260001B751DA22E3
:100FF800070E0AD0000120EE0CF00001B651D926E8
:101008000001B751DA22060EDF6E12008AB002D054
:10101800010E01D0000E00017D6F8A5000017D197C
:10102800FE0B7D198A6E000E00010001616F000E33
:101038000001606FD7EC0CF000017D6F020E00011B
:101048000001786F00017D510001000E00010001D0
:101058007A6F0001810E0001796F0001000E000116
:1010680000017C6F0001830E00017B6F07EC0CF020
:10107800000100017F6F0001806B00017FBF8007C6
:10108800000100017F51020A8011D8A41BD0000181
:101098007D6F020E00010001766F00017D51000195
:1010A8007E6F0A0E00010001776F00017E5100017A
:1010B800000E00010001796F0001830E0001786FB6
:1010C80046EC0CF01200C7EC0AF000010001985140
:1010D80000019711D8B44BD08A860001996F010E90
:1010E80000010001B86F000199510101010E0001D2
:1010F8000001946F01016C0E0001936F42EC0BF03C
:101108000009D8A40ED00101010E00010001946F5E
:101118000101A20E0001936F42EC0BF00009D8B454
:101128000AD00001996F000E00010001B86F00019C
:1011380099518A961CD00001996F0A0E000100018E
:10114800936F00019951A1EC0CF08AB602D0010E00
:1011580001D0000E0001996F0001994799479947FE
:101168008A5000019919F70B99198A6EBED7120097
:101178000DC012F0136A20EE34F00B50D9260C5033
:10118800DA22DF50146E14500D0DF3500B24156E37
:10119800F4500C20166E15C0D9FF16C0DAFFDF50C8
:1011A800D8B402D0FF0E38D020EE01F01550D92661
:1011B8001650DA220DC0DFFF20EE02F01550D926B6
:1011C8001650DA220EC0DFFF030E1524016E000E42
:1011D8001620026E0FC003F010C004F012C005F014
:1011E80013C006F0E7EC0AF020EE34F00B50D926D5
:1011F8000C50DA2210EE34F00B50E1260C50E222AB
:10120800E750116E1128030BDF6E15C0D9FF16C009
:10121800DAFF010EDF6E010E12000600EACF88F039
:10122800E1CF89F0E2CF8AF0D9CF8BF0DACF8CF01A
:10123800F3CF8DF0F4CF8EF0F6CF8FF0F7CF90F09C
:10124800F8CF91F0F5CF92F09EA601D001D004D04E
:101258009E9666EC00F000D0F2A401D001D004D034
:10126800F2940AEC08F000D09EAC01D001D004D072
:101278009E9CA6EC0AF000D09EAA01D001D003D013
:1012880026EC0BF000D0D3EC09F092C0F5FF91C02A
:10129800F8FF90C0F7FF8FC0F6FF8EC0F4FF8DC037
:1012A800F3FF8CC0DAFF8BC0D9FF8AC0E2FF89C088
:1012B800E1FF88C0EAFF87C0E9FF86C0FBFF85C061
:1012C800FAFF1100000120EE34F000019351D926F5
:1012D80000019451DA22000EDF6E000120EE35F095
:1012E80000019351D92600019451DA22000EDF6ED5
:1012F8000001956F000E00010001966F00019551E5
:1013080013D00001000196510D0DF35000010001AA
:101318009325D96EF450000100019421DA6E000E75
:10132800DF6E00010001962B030E00010001966597
:10133800E8D712000001976F000E00010001B86F96
:10134800000197510101010E00010001946F010194
:10135800A20E0001936F66EC09F00101010E000175
:101368000001946F01016C0E0001936F66EC09F0A7
:101378000101010E00010001946F0101360E000108
:10138800936F66EC09F00101010E00010001946FF2
:101398000101000E0001936F66EC09F012000001D4
:1013A8000001B86701D02FD0ABEC0BF000010001B1
:1013B800635100016211D8A426D0CEEC0CF00001D4
:1013C8000001615100016011D8B41DD00101010E66
:1013D80000010001616F01016C0E0001606F5DEC9E
:1013E8000BF00009D8A40FD00101010E0001000183
:1013F800616F0101A20E0001606F5DEC0BF0000946
:10140800D8B4FFEC0CF0120000010001B92B000168
:101418009D6F080E00010001936F00019D510001AE
:101428009E6F800E00010001946F00019E516DECCB
:101438000CF0F0EC0CF0C580C5B0FED700019D6F34
:10144800550E00010001936F00019D5181EC0AF0D7
:10145800B9C093F081EC0AF005EC0DF0120095C0CC
:101468009BF096C09CF093C099F094C09AF012D06B
:101478009BC0D9FF9CC0DAFF99C0E1FF9AC0E2FF88
:10148800DFCFE7FF000100019B4B9C2B000100010F
:10149800994B9A2B000100019707D8A098070001E3
:1014A8009729D8B49829D8B41200E2D762C068F056
:1014B80063C069F060C066F061C067F012D068C0B0
:1014C800D9FF69C0DAFF66C0E1FF67C0E2FFDFCF7E
:1014D800E7FF00010001684B692B00010001664B22
:1014E800672B000100016407D8A065070001642983
:1014F800D8B46529D8B41200E2D793C0C9FFC6BED4
:1015080020D0C6500F0B080AD8B40CD0C6500F0B09
:101518000B0AD8B407D0C6889EA6FED7C7B411D088
:10152800C7500FD0C6500F0B080AD8B405D0C65004
:101538000F0B0B0AD8A405D0C7B0FED7F0EC0CF0FF
:10154800C5501200E8EC0CF0000160C0B2F00001D8
:1015580061C0B3F000010001B551800A7F0F2B0E66
:10156800D8B4B45DD8B005D000010001B44BB52B98
:1015780009D0000E00010001B56F000E0001B46F24
:1015880002EC0DF0120092EC0BF0000100019651F4
:1015980000019511D8A40FD0AAEC0CF000010001AD
:1015A800945100019311D8A406D0000E0001000147
:1015B800986F010E05D0000E00010001986F000E13
:1015C8000001976F120003C009F004C00AF001C0BF
:1015D80007F002C008F00ED009C0D9FF0AC0DAFF30
:1015E80007C0E1FF08C0E2FFDFCFE7FF094A0A2A88
:1015F800074A082A0506D8A006060528D8B40628EA
:10160800D8B41200E9D70001000195511E0A9611BD
:10161800D8B417D00001000195511F0A9611D8A41B
:1016280010D0000100019751000100019925D96EE1
:10163800000100019851000100019A21DA6E000EA4
:10164800DF6E120090EC0CF0386E00017A6F010E1C
:1016580000010001766F00017A5100017B6F280EAE
:1016680000010001776F00017B51000138C078F05C
:1016780000010001796B46EC0CF01200000120EE2D
:1016880035F000019351D92600019451DA22DF5038
:101698000001956F000195510D0DF35000010001F7
:1016A8009325D96EF450000100019421DA6EDF50C1
:1016B8001200000120EE35F000016051D92600012A
:1016C8006151DA22DF500001626F000162510D0D95
:1016D800F350000100016025D96EF45000010001AB
:1016E8006121DA6EDF5012000001000193517E0B78
:1016F800CD6E0001000193AD02D0CD8E01D0CD9EFC
:10170800000ECF6E000ECE6E9E900001000193AFCA
:1017180002D09D8001D09D90CD801200F2BC09D0EE
:10172800AAEC0CF000010001945100019311D8B407
:1017380006D0000E00010001966F000E05D0000EC5
:1017480000010001966F010E0001956F1200F2BCB6
:1017580009D0CEEC0CF000010001615100016011CC
:10176800D8B406D0000E00010001636F000E05D04A
:10177800000E00010001636F010E0001626F12008C
:1017880001EE00F0D80EEE6AE806FDE100EEB2F0D8
:10179800080EEE6AE806FDE100EE30F0150EEE6A7E
:1017A800E806FDE1000EF86E000192EF03F001017A
:1017B800010E000100019E6F0101A20E00019D6F44
:1017C800ABC09FF0ACC0A0F0ADC0A1F0AEC0A2F01D
:1017D800AFC0A3F012EC05F012000101010E0001E8
:1017E80000019E6F01016C0E00019D6FABC09FF060
:1017F800ACC0A0F0ADC0A1F0AEC0A2F0AFC0A3F0E5
:1018080012EC05F012000101010E000100016B6FDE
:101818000101000E00016A6F78C06CF079C06DF0AC
:101828007AC06EF07BC06FF07CC070F0A8EC05F059
:1018380012001B6E000E176E1B501C6E0B0E186EDE
:101848001C50000E1A6E000E196E7FEC0CF0FE0E86
:10185800026E3E0E016EC5EC0CF012001E6E0A0EF2
:10186800196E1E50000E1B6E440E1A6E000E1D6E71
:10187800390E1C6E5AEC0CF039C001F0E0EC0CF09B
:101888009D9812000101010E000100016B6F01011A
:101898006C0E00016A6F76C06CF077C06DF078C08E
:1018A8006EF079C06FF0C3EC06F012000101010E72
:1018B8000C6E0101000E0B6E19C00DF01AC00EF06F
:1018C8001BC00FF01CC010F01DC011F041EC07F058
:1018D80012003F0EC716000EC66E000EC56E000140
:1018E80000019351C612000100019451C712948659
:1018F8009488C68A12000101010E0C6E0101A20E25
:101908000B6E17C00DF018C00EF019C00FF01AC0FA
:1019180010F0BCEC08F01200F20E3616ABAC03D097
:101928003690ABB03680ABB43684ABB23686AECF29
:1019380060F00001000160511200FA0E00F0E82E7C
:10194800FDD700010001932FF8D71200000EF2AE68
:10195800010E00010001936F0001946B120093C007
:1019680095F094C096F096C0CFFF95C0CEFF1200B8
:1019780093C0D9FF94C0DAFF000EDE6E000EDD6E54
:10198800120001C003F002C004F004C0CFFF03C07E
:10199800CEFF1200000EF2AE010E00010001606FD2
:1019A8000001616B120060C062F061C063F063C047
:1019B800D7FF62C0D6FF1200ACAC03D0AC9036B2F1
:1019C800AC8001C0ADFF1200C45000010001616F7E
:1019D800C3500001606F1200C5501F0BD8B4C7B4C4
:1019E800FBD7120099C09BF09AC09CF01200D08ED1
:1019F800F28EF28C1200D38E03001200CD909D90CF
:061A08001200C69A120054
:020000040020DA
:08000000FFFFFFFFFFFFFFFF00
:020000040030CA
:0E000000FF08191EFF8080FF0FC00FE00F40A9
:00000001FF
