:0400000061EF00F0BC
:10000800FACF8DF0FBCF8EF0E9CF8FF099EF08F0A3
:10001800D8CF1DF0E8CF1EF0E0CF1FF0FACF20F0C8
:10002800FBCF21F0E9CF22F0EACF23F0E1CF24F093
:10003800E2CF25F0D9CF26F0DACF27F0F3CF28F09A
:10004800F4CF29F0F6CF2AF0F7CF2BF0F8CF2CF029
:10005800F5CF2DF09EA001D001D004D09E90FEECEB
:100068000BF000D09EAA01D001D004D09E9A47EC94
:1000780008F000D02DC0F5FF2CC0F8FF2BC0F7FF0B
:100088002AC0F6FF29C0F4FF28C0F3FF27C0DAFF13
:1000980026C0D9FF25C0E2FF24C0E1FF23C0EAFF44
:1000A80022C0E9FF21C0FBFF20C0FAFF1FC0E0FF0C
:1000B8001EC0E8FF1DC0D8FF1000DEEF0AF00001E7
:1000C800806F000E000100018A6F0001805100015D
:1000D800806F000E00010001856F00018051000152
:1000E800806F000E00010001896F0001805100013E
:1000F800806F000E00010001886F0001805100012F
:10010800806F000E00010001866F00018051C6ACAF
:1001180029D0C69C000120EE0CF00001BB51D92665
:100128000001BC51DA22050EDF6E0001806F010E5E
:1001380000010001866F00018051000120EE0EF0E1
:100148000001BB51D9260001BC51DA22DF2A000187
:1001580020EE0DF00001BB51D9260001BC51DA2276
:10016800040EDF6EC7A00AD0C9CF87F00001806FE8
:10017800010E000100018A6F000180510001000199
:100188008667CDD1B6D1C7A6CAD18AC02EF090EC69
:1001980006F0000120EE0CF00001BB51D926000149
:1001A800BC51DA22080EDF62BAD10001806F000E5E
:1001B800000100018A6F000180510001806F010E6B
:1001C80000010001886F87D1C7A830D0000120EE58
:1001D8000BF00001BB51D9260001BC51DA22DF2AFD
:1001E800000100018A51D8B479D1C7BA09D00001F9
:1001F800806F010E00010001896F000180516ED1EE
:10020800000120EE0EF00001BB51D9260001BC51BF
:10021800DA22DF2A000120EE0DF00001BB51D926B9
:100228000001BC51DA22060EDF6E58D10001000130
:100238008A51D8B474D1000120EE0BF00001BB51F3
:10024800D9260001BC51DA22DF2AC7BA19D0C7B4AF
:100258000BD0000120EE0CF00001BB51D9260001A3
:10026800BC51DA22070E76D0000120EE0CF0000116
:10027800BB51D9260001BC51DA22080EDF6E1DD110
:10028800000120EE0EF00001BB51D9260001BC513F
:10029800DA22DF2A000120EE0CF00001BB51D9263A
:1002A8000001BC51DA22050EDF6E000120EE0DF0D0
:1002B8000001BB51D9260001BC51DA22060E4AD0F2
:1002C800000120EE1AF00001BB51D9260001BC51F3
:1002D800DA22DF500001806F000120EE19F00001E2
:1002E800BB51D9260001BC51DA22DF500001805DE4
:1002F800D8B0F4D0000120EE1AF00001BB51D92685
:100308000001BC51DA22DF500001806F00018051EA
:10031800010D0F0EF326000EF422F3500001000128
:10032800BB25D96EF45000010001BC21DA6EDF5004
:10033800C96E000120EE1AF00001BB51D926000158
:10034800BC51DA22DF2A0001806F010E0001000192
:10035800856FC1D0DF6EE3D0C7A862D0000120EE60
:100368000BF00001BB51D9260001BC51DA22DF2A6B
:10037800000100018A51D8B44AD0C7AA27D0000189
:1003880020EE0AF00001BB51D9260001BC51DA2247
:10039800DF500001806F00018051010DF350000112
:1003A8000001BB25D96EF45000010001BC21DA6EB2
:1003B800000187C0DFFF000120EE0AF00001BB51F9
:1003C800D9260001BC51DA22DF2A21D0000120EE13
:1003D8000EF00001BB51D9260001BC51DA22DF2AF8
:1003E800000120EE0DF00001BB51D9260001BC51DF
:1003F800DA22060EDF6E000120EE0CF00001BB5180
:10040800D9260001BC51DA22050EDF6E67D0000143
:10041800806F010E00010001896F000180515ED0DC
:10042800000100018A51D8B47AD0000120EE0BF007
:100438000001BB51D9260001BC51DA22DF2AC7AA24
:1004480027D0000120EE0AF00001BB51D926000197
:10045800BC51DA22DF500001806F00018051010D8C
:10046800F35000010001BB25D96EF45000010001D2
:10047800BC21DA6E000187C0DFFF000120EE0AF020
:100488000001BB51D9260001BC51DA22DF2A47D02E
:10049800C7A4B6D6000120EE0CF00001BB51D92646
:1004A8000001BC51DA22080EDF6E0001806F010ED8
:1004B80000010001896F000180510001806F010E69
:1004C80000010001886F000180510001806F000E5B
:1004D800000100018A6F0001805121D0000120EE47
:1004E8000CF00001BB51D9260001BC51DA22050EDF
:1004F80031D7000120EE0CF00001BB51D9260001D4
:10050800BC51DA22DF50050AD8B43DD6030AD8B464
:100518005BD6010AD8B420D70F0AD8B4D1D60001C7
:1005280000018A6705D0000100018551D8B402D0C6
:10053800C6A8C688000120EE0AF00001BB51D926E2
:100548000001BC51DA22080EDF6424D0000100014A
:10055800896720D0000120EE0CF00001BB51D9269C
:100568000001BC51DA22050EDF6E000120EE0EF00C
:100578000001BB51D9260001BC51DA22DF2A000153
:1005880020EE0DF00001BB51D9260001BC51DA2242
:10059800070EDF6E000100018951D8B443D0000175
:1005A80020EE0BF00001BB51D9260001BC51DA2224
:1005B800000110EE0AF00001BB51E1260001BC5118
:1005C800E222E7500001806F00018051010DF350D5
:1005D80000010001BB25E16EF45000010001BC21BF
:1005E800E26EDFCFE7FF000120EE0AF00001BB5109
:1005F800D9260001BC51DA22DF500001806F0001CA
:100608008029446E0001816F280E456E00018151DA
:10061800BBC046F0BCC047F0B9EC0BF0000120EEBF
:100628000AF04AD0000120EE0EF00001BB51D92695
:100638000001BC51DA22DF50D8B446D0000120EEC8
:100648000EF00001BB51D9260001BC51DA22DF505F
:1006580000010001826F000120EE0DF00001BB5186
:10066800D9260001BC51DA22DF5000010001836F56
:10067800000120EE0BF00001BB51D9260001BC514E
:10068800DA22DF5000010001846F0001806F030E41
:10069800446E000180510001816F290E456E0001F2
:1006A80081510001000E476E0001820E466EB9ECC2
:1006B8000BF0000120EE0EF00001BB51D92600011D
:1006C800BC51DA22000EDF6E000100018851D8B457
:1006D80012000001806F000E446E0001805100017D
:1006E800816F2A0E456E00018151BBC046F0BCC027
:1006F80047F0B9EC0BF00001806F000E000100011B
:10070800886F000180511200000E02010201116F72
:10071800000E0201106F820ED36E9B9C0201020E26
:10072800000100019C6F0201160E00019B6F96EC00
:1007380009F00201020E000100019C6F0201120E75
:1007480000019B6FF5EC0BF063EC09F0000E936E63
:10075800000E8A6E0001B86FC50E000100019B6F84
:100768000001B85114EC0BF029EC0CF09F909F8617
:100778000001B86FD50E000100019B6F0001B85150
:100788000001B96F840E000100019C6F0001B9518E
:100798000001BA6FFF0E000100019D6F0001BA5100
:1007A800E6EC08F00001B86F9E0E000100019B6F97
:1007B8000001B85184EC0BF09D86F2EC06F00001C4
:1007C800B86F0A0E00010001B36F0001B8510201B1
:1007D800020E00010001B56F0201140E0001B46F92
:1007E8000201020E00010001B76F0201000E0001B4
:1007F800B66F5BEC0BF002010201156F02010201FA
:1008080015BF88D078D00201020E000100019C6F4C
:1008180002010D0E00019B6F0201000114C29DF040
:10082800000100019E6B0201020115510001000147
:100838009F6F0001A06B00019FBFA0070201020E7D
:1008480000010001A26F0201000E0001A16F1FEC60
:100858000CF060D000C20FF25DD00001B86F020E3C
:1008680002010201156F0001B85110C200F2000127
:10087800B86FAA0E02010201016F0001B85102010E
:100888000201104B112B29D00001B86F010E020193
:100898000201156F0001B8510001B86F3A0E0BD074
:1008A8000001B86F010E02010201156F0001B85175
:1008B8000001B86FA30E02010201006F0001B851D8
:1008C8000CD0020102010F51A80AD8B4DDD7010AE1
:1008D800D8B4E6D7030AD8B4C0D715C29BF0020132
:1008E800020E000100019D6F0201000E00019C6FC5
:1008F800A3EC05F00FD00201020114510A0AD8B482
:1009080082D7220AD8B4A6D7010AD8B4A3D7030A33
:10091800D8B4D7D70001B86F0A0E00010001B36F31
:100928000001B8510201020E00010001B56F020179
:10093800140E0001B46F0201020E00010001B76F2E
:100948000201000E0001B66F45EC0BF00201020136
:10095800156F0201020115BF30D74ED00201020EF9
:10096800000100019C6F0201120E00019B6F020141
:10097800000114C29DF0000100019E6B02010201FA
:100988001551000100019F6F0001A06B00019FBF7E
:10099800A0070201020E00010001A26F0201000E71
:1009A8000001A16FD9EC0BF008D70201020E00017B
:1009B80000019C6F02010B0E00019B6F02010001F8
:1009C80014C29DF0000100019E6B02010201155145
:1009D800000100019F6F0001A06B00019FBFA007ED
:1009E8000201020E00010001A26F0201000E0001C7
:1009F800A16FBFEC0AF0E1D60201020114510B0A03
:100A0800D8B4ACD7150AD8B4D0D7010AD8B4CDD742
:100A1800D4D6000120EE35F00001A551D9260001F9
:100A2800A651DA22DF5000010001AE6F000100017B
:100A3800AE510D0DF35000010001A5250001000184
:100A4800B16FF45000010001A6210001B26F010E40
:100A5800B1C0D9FFB2C0DAFFDF626FD0000120EE6B
:100A680001F00001B151D9260001B251DA22DF505C
:100A780000010001A76102D0FD0E1200000120EE66
:100A880001F00001B151D9260001B251DA22DF503C
:100A98000001AC6F0001AC5100010001AF6F000113
:100AA800B06BAAC09BF0ABC09CF0030E0001000124
:100AB800B1250001AC6F000E00010001B221000158
:100AC800AD6FACC09DF0ADC09EF0AFC09FF0B0C0A0
:100AD800A0F0C7EC09F0000120EE35F00001A551A7
:100AE800D9260001A651DA22000110EE35F00001E6
:100AF800A551E1260001A651E222E7500001AC6FA2
:100B08000001AC29030BDF6E000120EE02F00001AA
:100B1800B151D9260001B251DA22A8C0E1FFA9C01B
:100B2800E2FFDFCFE7FFB1C0D9FFB2C0DAFF000EA6
:100B3800DF6E00010001AF511200FC0E120000012F
:100B480020EE19F00001BB51D9260001BC51DA2270
:100B5800000EDF6E42D0000120EE19F00001BB51FB
:100B6800D9260001BC51DA22DF5000019E6F000136
:100B78009E51010DF350000100019C25D96EF450DF
:100B8800000100019D21DA6E000110EE19F000014C
:100B9800BB51E1260001BC51E222E75000019F6FE2
:100BA80000019F51010D0F0EF326000EF422F350A1
:100BB80000010001BB25E16EF45000010001BC21D9
:100BC800E26EDFCFE7FF000120EE19F00001BB5114
:100BD800D9260001BC51DA22DF2A000120EE19F0E3
:100BE8000001BB51D9260001BC51DA22DF500001B7
:100BF8009E6F000100019B5100019E5DD8A0ABD7FC
:100C0800000120EE19F00001BB51D9260001BC51AA
:100C1800DA2200019BC0DFFF000120EE1AF000017C
:100C2800BB51D9260001BC51DA22010EDF6E00014A
:100C380020EE0FF00001BB51D9260001BC51DA2289
:100C4800DF50C96EC688120020EE35F03850D9261C
:100C58003950DA22DF50416E41500D0DF3503824DF
:100C6800446EF4503920456E010E44C0D9FF45C08A
:100C7800DAFFDF624FD020EE01F04450D92645500C
:100C8800DA22DF503A6002D0FD0E120020EE01F0A9
:100C98004450D9264550DA22DF503F6E3F50426E0D
:100CA800436A3DC02EF03EC02FF0030E44243F6E31
:100CB800000E4520406E3FC030F040C031F042C0C9
:100CC80032F043C033F09FEC0AF020EE35F0385094
:100CD800D9263950DA2210EE35F03850E12639504D
:100CE800E222E7503F6E3F28030BDF6E20EE02F052
:100CF8004450D9264550DA223BC0E1FF3CC0E2FF10
:100D0800DFCFE7FF44C0D9FF45C0DAFF000EDF6E32
:100D180042501200FC0E1200000120EE0BF0000100
:100D2800BB51D9260001BC51DA22010EDF6E000149
:100D380020EE0AF00001BB51D9260001BC51DA228D
:100D4800000EDF6E2E50D8B43DD0C7AA21D00001C6
:100D580020EE0CF00001BB51D9260001BC51DA226B
:100D6800050EDF6E000120EE0EF00001BB51D92602
:100D78000001BC51DA22DF2A000120EE0DF000014B
:100D8800BB51D9260001BC51DA22050EDF6E1200D4
:100D9800C7A40CD0000120EE0CF00001BB51D926ED
:100DA8000001BC51DA22080EDF6E1200000120EEAD
:100DB8000CF00001BB51D9260001BC51DA22070E04
:100DC800DF6E1200000120EE0CF00001BB51D926A5
:100DD8000001BC51DA22060EDF6E12005DEC0AF04B
:100DE80000010001A05100019F11D8B412008A86A9
:100DF8000001A16F010E506E0001A1510101010E09
:100E0800000100019C6F01016C0E00019B6FF9EC61
:100E18000AF00009D8B408D00001A16F000E506E86
:100E28000001A1518A9612000101010E0001000182
:100E38009C6F0101A20E00019B6FF9EC0AF00009FA
:100E4800D8B408D00001A16F000E506E0001A15166
:100E58008A9612000001A16F0A0E000100019B6F23
:100E68000001A151E3EC0BF08AB602D0010E01D0CB
:100E7800000E0001A16F0001A147A147A1478A50B8
:100E88000001A119F70BA1198A6EB8D70DC012F08D
:100E9800136A20EE34F00B50D9260C50DA22DF50BA
:100EA800146E14500D0DF3500B24156EF4500C20D5
:100EB800166E15C0D9FF16C0DAFFDF50D8B402D0BD
:100EC800FF0E120020EE01F01550D9261650DA2236
:100ED8000DC0DFFF20EE02F01550D9261650DA2299
:100EE8000EC0DFFF030E1524016E000E1620026EE1
:100EF8000FC003F010C004F012C005F013C006F0D4
:100F08007FEC0AF020EE34F00B50D9260C50DA2290
:100F180010EE34F00B50E1260C50E222E750116E2F
:100F28001128030BDF6E15C0D9FF16C0DAFF010EBA
:100F3800DF6E010E12003AC03FF0406A20EE34F036
:100F48003850D9263950DA22DF50416E41500D0D04
:100F5800F3503824426EF4503920436E42C0D9FF12
:100F680043C0DAFFDF50D8B402D0FF0E120020EEE3
:100F780001F04250D9264350DA223AC0DFFF20EE72
:100F880002F04250D9264350DA223BC0DFFF030E5D
:100F980042242E6E000E43202F6E3CC030F03DC020
:100FA80031F03FC032F040C033F09FEC0AF020EE41
:100FB80034F03850D9263950DA2210EE34F038504F
:100FC800E1263950E222E7503E6E3E28030BDF6EE1
:100FD80042C0D9FF43C0DAFF010EDF6E010E1200D6
:100FE8008AB002D0010E01D0000E0001856F8A5030
:100FF80000018519FE0B85198A6E000E2F6E000EF2
:101008002E6E10EC0CF00001856F020E000100013D
:10101800806F000185510001000E00010001826F00
:101028000001890E0001816F0001000E000100011E
:10103800846F00018B0E0001836F71EC0BF00001CF
:101048000001876F0001886B000187BF88070001D6
:1010580000018751020A8811D8A412000001856F87
:10106800020E446E000185510001866F0A0E456E1E
:10107800000186510001000E476E00018B0E466E7E
:10108800B9EC0BF012009EAA3DD020EE04F04E50B1
:10109800D9264F50DA22DF501B6E1B50010DF3503A
:1010A8004E24D96EF4504F20DA6ECAEC0BF0DF6E86
:1010B80020EE04F04E50D9264F50DA22DF2A20EED7
:1010C80004F04E50D9264F50DA22040EDF621AD0AF
:1010D80020EE04F04E50D9264F50DA22DF50176E1A
:1010E8001B6E1F0E186E1B504EC019F04FC01AF021
:1010F800A8EC0BF020EE04F04E50D9264F50DA221F
:10110800000EDF6E51A61200AB98AB881B6E000E66
:10111800176E1B501C6E1E0E186E1C50000E1A6E99
:10112800000E196EA8EC0BF01200EACF90F0E1CF98
:1011380091F0E2CF92F0D9CF93F0DACF94F0F3CFD9
:1011480095F0F4CF96F0F6CF97F0F7CF98F0F8CF68
:1011580099F0F5CF9AF09EA601D001D004D09E96C2
:1011680063EC00F000D0F2A401D001D004D0F294D6
:10117800F4EC07F000D09EAC01D001D004D09E9CC6
:1011880015EC0AF000D0EEEC09F09AC0F5FF99C012
:10119800F8FF98C0F7FF97C0F6FF96C0F4FF95C018
:1011A800F3FF94C0DAFF93C0D9FF92C0E2FF91C069
:1011B800E1FF90C0EAFF8FC0E9FF8EC0FBFF8DC042
:1011C800FAFF1100000EC26E000EC06E0001000191
:1011D800D8909C313C0BC26E9CC09EF000019E3B97
:1011E800F00E9E17300E00019E17000100019D5160
:1011F8000F0B00019E11C16E9BC09EF00001D8909C
:101208009E370001D8909E37380E00019E179BC06C
:101218009FF000019F3B0F0E9F17070E00019F17BD
:10122800000100019B51800B00019F1100019E11DC
:10123800C06E000100019CAF03D09E9C9D8CF28C77
:10124800C2801200000120EE34F000019B51D92623
:1012580000019C51DA22000EDF6E000120EE35F00D
:1012680000019B51D92600019C51DA22000EDF6E45
:1012780000019D6F000E000100019E6F00019D514D
:10128800030E000100019E6501D01200000100015B
:101298009E510D0DF350000100019B25D96EF450AD
:1012A800000100019C21DA6E000EDF6E00010001D2
:1012B8009E2B030E000100019E65E8D71200000175
:1012C8009F6F000E506E00019F510101010E000139
:1012D80000019C6F0101A20E00019B6F26EC09F032
:1012E8000101010E000100019C6F01016C0E00015B
:1012F8009B6F26EC09F00101010E000100019C6FB3
:101308000101360E00019B6F26EC09F00101010E68
:10131800000100019C6F0101000E00019B6F26EC8B
:1013280009F012009BC0BBF09CC0BCF0000120EE8D
:101338000AF00001BB51D9260001BC51DA22000E87
:10134800DF6E000120EE0BF00001BB51D926000131
:10135800BC51DA22000EDF6E000120EE0CF0000115
:10136800BB51D9260001BC51DA22050EDF6E0001FF
:1013780020EE0EF00001BB51D9260001BC51DA2243
:10138800000EDF6E12009DC0A3F09EC0A4F09BC0AB
:10139800A1F09CC0A2F012D0A3C0D9FFA4C0DAFF6C
:1013A800A1C0E1FFA2C0E2FFDFCFE7FF000100011B
:1013B800A34BA42B00010001A14BA22B00010001AB
:1013C8009F07D8A0A00700019F29D8B4A029D8B4A6
:1013D8001200E2D7506601D012002EEC0BF031500B
:1013E8003010D8A4120019EC0CF02F502E10D8B4DD
:1013F80012000101010E2F6E01016C0E2E6E96EC8B
:101408000BF00009D8A412000101010E2F6E010192
:10141800A20E2E6E96EC0BF00009D8B42DEC0CF051
:10142800120024EC0CF02EC048F02FC049F0D890E0
:101438004C34306E4D34316E320E3024D96E020E7B
:101448003120DA6E48C0DEFF49C0DDFF4D50800A0A
:10145800800FC60ED8B44C5CD8B003D04C4A4D2A85
:101468001200000E4D6E000E4C6E1200F2AC08D049
:10147800000E000100019E6F000E00019D6F12001A
:10148800ECEC0BF0000100019C5100019B11D8B459
:1014980008D0000E000100019E6F000E00019D6F34
:1014A8001200000E000100019E6F010E00019D6FE9
:1014B80012003AEC0AF0000100019E5100019D1152
:1014C800D8A411D0ECEC0BF0000100019C510001F4
:1014D8009B11D8A408D0000E00010001A06F010ED6
:1014E80000019F6F1200000E00010001A06F000EA6
:1014F80000019F6F120003C009F004C00AF001C088
:1015080007F002C008F00ED009C0D9FF0AC0DAFF00
:1015180007C0E1FF08C0E2FFDFCFE7FF094A0A2A58
:10152800074A082A0506D8A006060528D8B40628BA
:10153800D8B41200E9D730C036F031C037F02EC029
:1015480034F02FC035F00ED036C0D9FF37C0DAFFDF
:1015580034C0E1FF35C0E2FFDFCFE7FF364A372A64
:10156800344A352A3206D8A033063228D8B433286C
:10157800D8B41200E9D7000100019D511E0A9E113E
:10158800D8B41200000100019D511F0A9E11D8A471
:101598001200000100019F5100010001A125D96E30
:1015A80000010001A05100010001A221DA6E000E25
:1015B800DF6E120002EE32F011EE90F0EE6AE550A6
:1015C800E150FCE1E250FAE101EE00F0D80EEE6ADB
:1015D800E806FDE100EE48F00A0EEE6AE806FDE1D5
:1015E800000EF86E000188EF03F0000120EE35F0E0
:1015F80000019B51D92600019C51DA22DF500001DD
:101608009D6F00019D510D0DF350000100019B25B8
:10161800D96EF450000100019C21DA6EDF501200EF
:10162800000100019B517E0BCD6E000100019BADB6
:1016380002D0CD8E01D0CD9E000ECF6E000ECE6EA4
:101648009E90000100019BAF02D09D8001D09D902B
:10165800CD801200F2AC05D0000E316E000E306E57
:10166800120019EC0CF02F502E10D8B405D0000E33
:10167800316E000E306E1200000E316E010E306EAB
:1016880012000101010E00010001A66F0101A20E66
:101698000001A56FB3C0A7F0B4C0A8F0B5C0A9F009
:1016A800B6C0AAF0B7C0ABF00DEC05F0120001010E
:1016B800010E00010001A66F01016C0E0001A56F6B
:1016C800B3C0A7F0B4C0A8F0B5C0A9F0B6C0AAF0DE
:1016D800B7C0ABF00DEC05F012000101010E396E38
:1016E8000101000E386E80C03AF081C03BF082C024
:1016F8003CF083C03DF084C03EF028EC06F01200B8
:10170800948694889BC0C8FF000EC76E000EC66EF4
:10171800000EC56E0E0EC612C78E94869488C580BC
:10172800C68A120020EE35F02E50D9262F50DA2224
:10173800DF50306E30500D0DF3502E24D96EF4501A
:101748002F20DA6EDF5012000101010E0C6E01012C
:10175800A20E0B6E17C00DF018C00EF019C00FF0D6
:101768001AC010F04AEC07F012000101010E396EA0
:1017780001016C0E386E44C03AF045C03BF046C0DB
:101788003CF047C03DF09FEC07F01200F20E5116F6
:10179800ABAC03D05190ABB05180ABB45184ABB279
:1017A8005186AECF01F0015012009BC0D9FF9CC0FA
:1017B800DAFFDE2A000EDD2230EC0CF01200FA0E01
:1017C80000F0E82EFDD7000100019B2FF8D712008A
:1017D800000EF2AE010E000100019B6F00019C6B30
:1017E80012009BC0D9FF9CC0DAFF000EDE6E000E0F
:1017F800DD6E120032EC0CF0FE0E026E3E0E016E33
:1018080007EC0CF0120001C003F002C004F004C0A1
:10181800CFFF03C0CEFF12002EC030F02FC031F032
:1018280031C0D7FF30C0D6FF1200000EF2AE010E55
:101838002E6E2F6A1200A1C0A3F0A2C0A4F012005D
:10184800C4502F6EC3502E6E1200D08EF28EF28CC2
:101858001200D38E03001200C2821200C28212004C
:067FF80080F4C5FFFFF15B
:00000001FF
