:0400000065EF00F0B8
:10000800FACF80F0FBCF81F0E9CF82F064EF07F000
:10001800D8CF03F0E8CF04F0E0CF05F0FACF06F030
:10002800FBCF07F0E9CF08F0EACF09F0E1CF0AF0FB
:10003800E2CF0BF0D9CF0CF0DACF0DF0F3CF0EF002
:10004800F4CF0FF0F6CF10F0F7CF11F0F8CF12F091
:10005800F5CF13F09EA001D001D004D09E90F1EC12
:100068000BF000D09EA801D001D008D09DA801D0E7
:1000780001D004D09D9855EC08F000D013C0F5FFCE
:1000880012C0F8FF11C0F7FF10C0F6FF0FC0F4FF51
:100098000EC0F3FF0DC0DAFF0CC0D9FF0BC0E2FFA2
:1000A8000AC0E1FF09C0EAFF08C0E9FF07C0FBFF7B
:1000B80006C0FAFF05C0E0FF04C0E8FF03C0D8FF90
:1000C8001000BBEF09F0000E020102011A6F000ECA
:1000D8000201196F820ED36E9B9C0201020E000171
:1000E80000018F6F02011F0E00018E6F98EC0AF05D
:1000F8000201020E000100018F6F02012F0E0001A4
:100108008E6F15EC09F00001AB6F2A0E000100019B
:10011800906F0001AB510FEC08F00201020E0001D4
:1001280000018F6F02011B0E00018E6FD7EC0BF0E0
:1001380088EC09F0000E936E000E8A6E0001AB6F1A
:10014800F50E000100018E6F0001AB51D0EC0AF0F2
:1001580008EC0CF00001AB6F5C0E000100018E6F23
:100168000001AB51000E00010001906F260E000146
:100178008F6F97EC08F09F909F8A9F989F869D8A23
:100188009D989D86000E926E8980899289948996A1
:10019800899A0CEC07F00001AB6F0A0E0001000110
:1001A800A66F0001AB510201020E00010001A86F09
:1001B80002011D0E0001A76F0201020E00010001DD
:1001C800AA6F02010E0E0001A96F47EC0BF00201A5
:1001D80002011E6F020102011EBFD6D0C3D0020168
:1001E800020E00010001906F0201090E00018F6FDD
:1001F800020100011DC291F000010001926B020191
:1002080002011E5100010001936F0001946B00016F
:1002180093BF94070201020E00010001966F0201CC
:100228000E0E0001956F4CEC06F00201020E000163
:1002380000018F6F02010B0E00018E6F0201000199
:100248001DC290F000010001916B020102011E51D4
:1002580000010001926F0001936B000192BF9307A8
:100268000201020E00010001956F02010E0E00014D
:10027800946FFEEC0BF088D00EC20DF20FC200F2A4
:1002880010C201F211C202F212C203F213C204F246
:100298000201020E000100018F6F02010E0E000123
:1002A8008E6F74EC05F09D886FD00001AB6F020E65
:1002B800020102011E6F0001AB510001AB6FAA0ED3
:1002C800020102010F6F0001AB5102010201194B3B
:1002D8001A2B020102011A51800A7F0F2C0ED8B482
:1002E800195DD8A031D0000E020102011A6F000E6C
:1002F8000201196F29D00001AB6F010E0201020142
:100308001E6F0001AB510001AB6F3A0E0BD000011C
:10031800AB6F010E020102011E6F0001AB5100011B
:10032800AB6FA30E020102010E6F0001AB510CD09E
:10033800020102010D51A80AD8B4DDD7010AD8B4C8
:10034800E6D7030AD8B4B1D71EC28EF00201020E56
:1003580000010001906F02010E0E00018F6F74EC16
:1003680004F012D0020102011D510A0AD8B45DD767
:10037800220AD8B481D7010AD8B47ED7030AD8B4E0
:10038800D7D7170AD8B42BD70001AB6F0A0E0001D4
:100398000001A66F0001AB510201020E000100012D
:1003A800A86F02011D0E0001A76F0201020E0001D5
:1003B8000001AA6F02010E0E0001A96F31EC0BF0CB
:1003C800020102011E6F020102011EBFE2D64ED0D9
:1003D8000201020E000100018F6F02011B0E0001D5
:1003E8008E6F020100011DC290F000010001916BA7
:1003F800020102011E5100010001926F0001936B7E
:10040800000192BF93070201020E00010001956FDF
:1004180002010E0E0001946F12EC0CF0BAD6020124
:10042800020E000100018F6F0201050E00018E6FA0
:10043800020100011DC290F000010001916B020150
:1004480002011E5100010001926F0001936B00012F
:1004580092BF93070201020E00010001956F02018D
:100468000E0E0001946FF9EC04F093D6020102011C
:100478001D510B0AD8B4ACD7150AD8B48AD6010ACC
:10048800D8B487D6230AD8B4CAD783D689908982A4
:100498002E6E000E386E2E502E6E000E346E2E50BC
:1004A8002E6E000E356E2E502E6E000E376E2E50AC
:1004B800C7A006D0C9CF36F02E6E010E386E2E506A
:1004C800376675D155D1C730E832010B2E6EC5504D
:1004D8001F0B2E100009D8B46AD1F5D7000120EE01
:1004E8000DF00001AF51D9260001B051DA22100EEB
:1004F800DF6E000120EE1CF00001AF51D92600018B
:10050800B051DA22DF50FE0BC96E51D1000120EE46
:100518000CF00001AF51D9260001B051DA22DF2AD0
:10052800000120EE1BF00001AF51D9260001B051A7
:10053800DA22DF502E6E000120EE1AF00001AF51D2
:10054800D9260001B051DA22DF502E5CD8A0C5BCF4
:1005580021D0000120EE1BF00001AF51D926000187
:10056800B051DA22DF502E6E2E50010D100EF326F8
:10057800000EF422F35000010001AF25D96EF450AB
:1005880000010001B021DA6EDF50C96E000120EED3
:100598001BF04DD0000120EE1BF00001AF51D92611
:1005A8000001B051DA22DF502E6E000120EE1AF061
:1005B8000001AF51D9260001B051DA22DF502E5C7C
:1005C800D8B0C9D0000120EE0DF00001AF51D926F6
:1005D8000001B051DA22130EBCD0000120EE0DF05C
:1005E8000001AF51D9260001B051DA22130EDF6E97
:1005F800000120EE1CF00001AF51D9260001B051D6
:10060800DA22DF500109C96EC586D1D0C5BCA3D096
:10061800C586000120EE0DF00001AF51D92600017A
:10062800B051DA22140EDF6E000120EE0CF000014A
:10063800AF51D9260001B051DA22DF2AB8D038509C
:10064800D8B4B5D0000120EE0BF00001AF51D92687
:100658000001B051DA22DF502E6E2E50010DF350FA
:1006680000010001AF25D96EF45000010001B0214E
:10067800DA6E36C0DFFF000120EE0AF00001AF514C
:10068800D9260001B051DA22DF502E6EFF0E2E243B
:100698002F6E306AFF0E3022000120EE0BF00001B1
:1006A800AF51D9260001B051DA22DF50316E326ADB
:1006B8003250800A336E2F50315C3050800A3358E4
:1006C800D8B018D0000120EE0DF00001AF51D926A6
:1006D8000001B051DA22130EDF6E000120EE0BF09C
:1006E8000001AF51D9260001B051DA22DF2AC59A9C
:1006F800C5885DD0C58AC588C730E832010B2E6E23
:10070800C5501F0B2E100009D8A4F6D72E6E060E62
:100718002A6E2E502F6E280E2B6E2F50AFC02CF045
:10072800B0C02DF0A5EC0BF0000120EE0DF000019B
:10073800AF51D9260001B051DA22150EDF6E000143
:1007480020EE0BF00001AF51D9260001B051DA229A
:10075800000EDF6E2CD0000120EE0DF00001AF512D
:10076800D9260001B051DA22050EDF6EC5841FD0EC
:10077800000120EE0DF00001AF51D9260001B05163
:10078800DA22DF50050AD8B49ED60C0AD8B4A6D609
:10079800190AD8B4BBD6020AD8B41FD7010AD8B4EC
:1007A80035D7070AD8B44BD7010AD8B4D4D789802B
:1007B80089921200000120EE35F000019851D926E7
:1007C80000019951DA22DF5000010001A16F0001F8
:1007D8000001A1510D0DF350000100019825000101
:1007E8000001A46FF4500001000199210001A56FD8
:1007F800010EA4C0D9FFA5C0DAFFDF626FD00001E7
:1008080020EE01F00001A451D9260001A551DA22F9
:10081800DF50000100019A6102D0FD0E12000001B4
:1008280020EE01F00001A451D9260001A551DA22D9
:10083800DF5000019F6F00019F5100010001A26F6E
:100848000001A36B9DC08EF09EC08FF0030E0001C7
:100858000001A42500019F6F000E00010001A521E1
:100868000001A06F9FC090F0A0C091F0A2C092F0CC
:10087800A3C093F0E5EC09F0000120EE35F000018B
:100888009851D92600019951DA22000110EE35F06D
:1008980000019851E12600019951E222E750000138
:1008A8009F6F00019F29030BDF6E000120EE02F00D
:1008B8000001A451D9260001A551DA229BC0E1FF0D
:1008C8009CC0E2FFDFCFE7FFA4C0D9FFA5C0DAFFD5
:1008D800000EDF6E00010001A2511200FC0E120092
:1008E800000120EE1AF00001AF51D9260001B051E5
:1008F800DA22000EDF6E42D0000120EE1AF000016D
:10090800AF51D9260001B051DA22DF500001916FB2
:1009180000019151010DF350000100018F25D96E9E
:10092800F450000100019021DA6E000110EE1AF077
:100938000001AF51E1260001B051E222E750000169
:10094800926F00019251010D100EF326000EF42251
:10095800F35000010001AF25E16EF45000010001E1
:10096800B021E26EDFCFE7FF000120EE1AF00001B0
:10097800AF51D9260001B051DA22DF2A000120EE5A
:100988001AF00001AF51D9260001B051DA22DF5028
:100998000001916F000100018E510001915DD8A006
:1009A800ABD7000120EE1AF00001AF51D9260001A3
:1009B800B051DA2200018EC0DFFF000120EE1BF0EB
:1009C8000001AF51D9260001B051DA22010EDF6EC5
:1009D800000120EE10F00001AF51D9260001B051FE
:1009E800DA22DF50C96EC68812008990898A000E03
:1009F80000010001996F000E0001986F94C0D9FFA3
:100A080095C0DAFF0101000E00010001AC25E16E7E
:100A18000101010E00010001AD21E26EDFCFE7FF09
:100A2800000120EE01F000019451D92600019551F2
:100A3800DA22010E00010001AC250001966F000EBC
:100A480000010001AD210001976F0101000E0001B6
:100A58009625E16E0101010E00019721E26EDFCFBC
:100A6800E7FF000120EE02F000019451D9260001B1
:100A78009551DA22020E00010001AC250001966FA3
:100A8800000E00010001AD210001976F0101000E69
:100A980000019625E16E0101010E00019721E26E29
:100AA800DFCFE7FF030E00010001AC2500010001C4
:100AB800AC6F000E00010001AD210001AD6F000117
:100AC8000001AC512D0AAD11D8A407D0000E0001C9
:100AD8000001AD6F000E0001AC6F8980899A120089
:100AE8008EC0D9FF8FC0DAFF62C0E1FF63C0E2FFAA
:100AF800DFCFE7FF000120EE01F000018E51D9267B
:100B080000018F51DA2210EE01F06250E1266350A5
:100B1800E222DFCFE7FF000120EE02F000018E5154
:100B2800D92600018F51DA2210EE02F06250E12638
:100B38006350E222DFCFE7FF000120EE03F000015F
:100B48008E51D92600018F51DA2210EE03F062503F
:100B5800E1266350E222DFCFE7FF000120EE04F038
:100B680000018E51D92600018F51DA2210EE04F0CF
:100B78006250E1266350E222DFCFE7FF000120EE5A
:100B880005F000018E51D92600018F51DA2210EEAE
:100B980005F06250E1266350E222DFCFE7FF20EE46
:100BA80006F06250D9266350DA22060EDF6E20EE78
:100BB8000FF06250D9266350DA22000EDF6E120061
:100BC80020EE35F01E50D9261F50DA22DF50276E4E
:100BD80027500D0DF3501E242A6EF4501F202B6E43
:100BE800010E2AC0D9FF2BC0DAFFDF624FD020EEFA
:100BF80001F02A50D9262B50DA22DF50206002D08B
:100C0800FD0E120020EE01F02A50D9262B50DA22D0
:100C1800DF50256E2550286E296A23C014F024C0A1
:100C280015F0030E2A24256E000E2B20266E25C0F3
:100C380016F026C017F028C018F029C019F078EC73
:100C48000AF020EE35F01E50D9261F50DA2210EE99
:100C580035F01E50E1261F50E222E750256E252868
:100C6800030BDF6E20EE02F02A50D9262B50DA2231
:100C780021C0E1FF22C0E2FFDFCFE7FF2AC0D9FF92
:100C88002BC0DAFF000EDF6E28501200FC0E120097
:100C98000001000191511E0A9211D8B412000001FE
:100CA800000191513D0A9211D8A412000001976FDA
:100CB800000E000100019A6F000197512BD000012E
:100CC80000019A51010DF350000100019525D96EDC
:100CD800F450000100019621DA6EDF500001000196
:100CE800AE6FACA2FED7000100019A51010DF3507E
:100CF800000100019525D96EF450000100019621EC
:100D0800DA6EDF50000100018E6FE9EC0BF0000194
:100D180000019A2B000100019A510001976F986B0E
:100D280000019851800A0001996F00019351000158
:100D3800975D000100019451800A00019959D8A0DB
:100D4800BED7ACA2FED70001976F550E0001000177
:100D58008E6F00019751E9EC0BF012009EAA43D068
:100D680020EE0DF06250D9266350DA22DF502E6E45
:100D78002E50010D070EF326000EF422F3506224C4
:100D8800D96EF4506320DA6EB6EC0BF0DF6E20EE0D
:100D98000DF06250D9266350DA22DF2A20EE0DF0DA
:100DA8006250D9266350DA22030EDF621CD020EE8F
:100DB8000DF06250D9266350DA22DF502A6E2E6E6B
:100DC8003C0E2B6E2E50070E62242C6E000E6320F4
:100DD8002D6E94EC0BF020EE0DF06250D926635086
:100DE800DA22000EDF6E53A610D0AB98AB882E6EB9
:100DF800000E2A6E2E502F6E1E0E2B6E2F50000ED8
:100E08002D6E000E2C6E94EC0BF0898089941200E4
:100E180056EC0AF000010001935100019211D8B478
:100E280012008A860001946F010E526E00019451DF
:100E38000101010E000100018F6F0101680E000120
:100E48008E6FB5EC0AF00009D8B408D00001946F91
:100E5800000E526E000194518A9612000101010E93
:100E6800000100018F6F01019E0E00018E6FB5EC2D
:100E78000AF00009D8B408D00001946F000E526E31
:100E8800000194518A9612000001946F0A0E000125
:100E980000018E6F00019451C5EC0BF08AB602D0A8
:100EA800010E01D0000E0001946F00019447944791
:100EB80094478A5000019419F70B94198A6EB8D791
:100EC800EACF83F0E1CF84F0E2CF85F0D9CF86F086
:100ED800DACF87F0F3CF88F0F4CF89F0F6CF8AF035
:100EE800F7CF8BF0F8CF8CF0F5CF8DF09EA601D020
:100EF80001D004D09E964AEC02F000D0F2A401D0B2
:100F080001D004D0F29451EC09F000D09EAC01D08D
:100F180001D004D09E9C02EC0BF000D09EAA01D018
:100F280001D005D089908984B2EC06F000D00CEC91
:100F38000AF08DC0F5FF8CC0F8FF8BC0F7FF8AC0A0
:100F4800F6FF89C0F4FF88C0F3FF87C0DAFF86C0C8
:100F5800D9FF85C0E2FF84C0E1FF83C0EAFF82C0F9
:100F6800E9FF81C0FBFF80C0FAFF110020C025F017
:100F7800266A20EE34F01E50D9261F50DA22DF50A0
:100F8800276E27500D0DF3501E24286EF4501F2095
:100F9800296E28C0D9FF29C0DAFFDF50D8B402D0A3
:100FA800FF0E120020EE01F02850D9262950DA222F
:100FB80020C0DFFF20EE02F02850D9262950DA227F
:100FC80021C0DFFF030E2824146E000E2920156EA1
:100FD80022C016F023C017F025C018F026C019F05B
:100FE80078EC0AF020EE34F01E50D9261F50DA2291
:100FF80010EE34F01E50E1261F50E222E750246E16
:101008002428030BDF6E28C0D9FF29C0DAFF010EA0
:10101800DF6E010E12000001916F080E0001000141
:101028008E6F000191510001926F800E0001000146
:101038008F6F0001925170EC0BF00A0EC86E000120
:1010480020EE1CF00001AF51D9260001B051DA2280
:10105800000190C0DFFF000E00010001946F000E38
:101068000001936F000100019451800A800F0A0E5D
:10107800D8B4935DD8B0120000010001935100016B
:101088000001AF25D96E0001000194510001000153
:10109800B021DA6E000EDF6E00010001934B942B35
:1010A800E1D78990898620EE0FF06250D9266350E7
:1010B800DA22DF50016E0150010DF3506224D96E1F
:1010C800F4506320DA6EDF50AD6E20EE0FF0625000
:1010D800D9266350DA22DF50016E0150010DF3501A
:1010E8006224D96EF4506320DA6EDF50026E20EE6F
:1010F8000FF06250D9266350DA22DF2A20EE0FF073
:101108006250D9266350DA22DF50016E20EE06F0D5
:101118006250D9266350DA22DF50015CD8A09D883E
:10112800898089961200000EAC6E000EAB6E00012D
:1011380000018EB1AC88000100018EA302D0AC8CF6
:10114800AB8C000100018EB5AC8E000100018EA7AA
:1011580002D0AB8801D0AB8A000100018EB9AC8403
:101168009E98000100018EBBAB86000100018EAD88
:1011780002D09D8A01D09D9A9E9A000100018EAFEF
:1011880002D09D8801D09D988FC0AFFF000100015B
:101198009051B06EAC8AAB8E949C948EACA8120021
:1011A800ACBE1200948C1200000120EE34F0000155
:1011B8008E51D92600018F51DA22000EDF6E000110
:1011C80020EE35F000018E51D92600018F51DA2228
:1011D800000EDF6E0001906F000E00010001916F9C
:1011E80000019051030E00010001916501D0120029
:1011F8000001000191510D0DF350000100018E25F1
:10120800D96EF450000100018F21DA6E000EDF6EF6
:1012180000010001912B030E000100019165E8D740
:1012280012008EC0AFF08FC0B0F0000120EE0AF0BF
:101238000001AF51D9260001B051DA22000EDF6E4D
:10124800000120EE0CF00001AF51D9260001B05189
:10125800DA22000EDF6E000120EE0DF00001AF5122
:10126800D9260001B051DA22050EDF6E000120EE0A
:101278000FF00001AF51D9260001B051DA22000E5B
:10128800DF6E000120EE0BF00001AF51D9260001FE
:10129800B051DA22000EDF6E12008AB002D0010EC1
:1012A80001D0000E316E8A503118FE0B31188A6E4B
:1012B800000E156E000E146EE0EC0BF0316E020E8F
:1012C8002C6E3150000E2E6E350E2D6E000E306EC7
:1012D800370E2F6E5DEC0BF0336E346A33BE340676
:1012E8003350020A3410D8A41200316E020E2A6E4E
:1012F8003150326E0A0E2B6E3250000E2D6E370EA4
:101308002C6EA5EC0BF012000001926F000E526ECD
:10131800000192510101010E000100018F6F0101CE
:101328009E0E00018E6FD8EC08F00101010E00013D
:1013380000018F6F0101680E00018E6FD8EC08F074
:101348000101010E000100018F6F0101320E000141
:101358008E6FD8EC08F00201020E000100018F6FB9
:1013680002014C0E00018E6FD8EC08F0120002EE5C
:101378004CF0360EEE6AE806FDE101EE00F0D40E00
:10138800EE6AE806FDE10001AE6BAD6BAC6B00EEFA
:1013980039F0260EEE6AE806FDE1280EF66E180E04
:1013A800F76E000EF86E0900F5CF5FF00900F5CF73
:1013B80060F00900F5CF61F0000EF86E000167EFEC
:1013C80000F090C096F091C097F08EC094F08FC056
:1013D80095F012D096C0D9FF97C0DAFF94C0E1FF0C
:1013E80095C0E2FFDFCFE7FF00010001964B972B86
:1013F80000010001944B952B000100019207D8A031
:10140800930700019229D8B49329D8B41200E2D7DF
:10141800526601D012001AEC0BF017501610D8A41F
:101428001200F8EC0BF015501410D8B4120001019A
:10143800010E156E0101680E146E82EC0BF00009A6
:10144800D8A412000101010E156E01019E0E146E42
:1014580082EC0BF00009D8B40CEC0CF01200F2ACE2
:1014680008D0000E00010001916F000E0001906F7E
:101478001200CEEC0BF0000100018F5100018E111B
:10148800D8B408D0000E00010001916F000E0001D1
:10149800906F1200000E00010001916F010E000113
:1014A800906F120033EC0AF0000100019151000125
:1014B8009011D8A411D0CEEC0BF0000100018F518F
:1014C80000018E11D8A408D0000E00010001936F0E
:1014D800010E0001926F1200000E00010001936FCF
:1014E800000E0001926F120016C01CF017C01DF00C
:1014F80014C01AF015C01BF00ED01CC0D9FF1DC0B7
:10150800DAFF1AC0E1FF1BC0E2FFDFCFE7FF1C4A8A
:101518001D2A1A4A1B2A1806D8A019061828D8B452
:101528001928D8B41200E9D78EC062F08FC063F0D2
:1015380020EE06F06250D9266350DA22000EDF6EE4
:1015480020EE0DF06250D9266350DA22000EDF6ECD
:1015580020EE0EF06250D9266350DA22310EDF6E8B
:101568001200000120EE35F000018E51D92600014D
:101578008F51DA22DF500001906F000190510D0D5C
:10158800F350000100018E25D96EF45000010001CE
:101598008F21DA6EDF501200000100018E517E0BA0
:1015A800CD6E000100018EAD02D0CD8E01D0CD9E52
:1015B800000ECF6E000ECE6E9E90000100018EAF21
:1015C80002D09D8001D09D90CD801200000120EEB8
:1015D8000AF00001AF51D9260001B051DA2201C04A
:1015E800DFFF000120EE0DF00001AF51D926000108
:1015F800B051DA22120EDF6EC580120003EC0CF037
:1016080014C048F015C049F04D50800A7F0F2B0ECA
:10161800D8B44C5CD8B003D04C4A4D2A1200000E06
:101628004D6E000E4C6E0FEC0CF01200F2AC05D0B3
:10163800000E176E000E166E1200F8EC0BF0155027
:101648001410D8B405D0000E176E000E166E1200D6
:10165800000E176E010E166E12000101010E000138
:101668000001996F01019E0E0001986FA6C09AF0C3
:10167800A7C09BF0A8C09CF0A9C09DF0AAC09EF08E
:10168800DEEC03F012000101010E00010001996F68
:101698000101680E0001986FA6C09AF0A7C09BF0E0
:1016A800A8C09CF0A9C09DF0AAC09EF0DEEC03F093
:1016B80012000201020E1F6E02014C0E1E6E2CC09B
:1016C80020F02DC021F02EC022F02FC023F030C012
:1016D80024F0E4EC05F012003F0EC716000EC66EAB
:1016E800000EC56E000100018E51C61200010001F6
:1016F8008F51C71294869488C68A120020EE35F05E
:101708001450D9261550DA22DF50166E16500D0DDA
:10171800F3501424D96EF4501520DA6EDF501200FD
:101728000101010E1F6E01019E0E1E6E2AC020F0DF
:101738002BC021F02CC022F02DC023F0BAEC07F00A
:1017480012000101010E1F6E0101680E1E6E2AC0F3
:1017580020F02BC021F02CC022F02DC023F0BAECD1
:1017680007F01200F20E5316ABAC03D05390ABB097
:101778005380ABB45384ABB25386AECF14F014503D
:101788001200FA0E00F0E82EFDD7000100018E2F9E
:10179800F8D71200000EF2AE010E000100018E6FA4
:1017A80000018F6B12008EC0D9FF8FC0DAFF000EC8
:1017B800DE6E000EDD6E120014C016F015C017F0B4
:1017C80017C0D7FF16C0D6FF1200ACAC03D0AC9040
:1017D80053B2AC808EC0ADFF1200026E060E016ED1
:1017E8000250EAEC0AF01200000EF2AE010E146E7E
:1017F800156A120094C096F095C097F01200C45074
:10180800156EC350146E1200D08EF28EF28C120038
:10181800D38E03001200CD909D9012009D88120077
:0418280001000100BA
:067FF80080F4C5FFFFF15B
:00000001FF
