:0400000064EF00F0B9
:10000800FACF9FF0FBCFA0F0E9CFA1F0F0EF08F016
:10001800D8CF1FF0E8CF20F0E0CF21F0FACF22F0C0
:10002800FBCF23F0E9CF24F0EACF25F0E1CF26F08B
:10003800E2CF27F0D9CF28F0DACF29F0F3CF2AF092
:10004800F4CF2BF0F6CF2CF0F7CF2DF0F8CF2EF021
:10005800F5CF2FF09EA001D001D004D09E90E4EC03
:100068000BF000D09EA801D001D007D09DA801D0E8
:1000780001D003D0F9EC0BF000D02FC0F5FF2EC053
:10008800F8FF2DC0F7FF2CC0F6FF2BC0F4FF2AC0E5
:10009800F3FF29C0DAFF28C0D9FF27C0E2FF26C036
:1000A800E1FF25C0EAFF24C0E9FF23C0FBFF22C00F
:1000B800FAFF21C0E0FF20C0E8FF1FC0D8FF1000F2
:1000C800CFEF0BF00001936F000E000100019D6F50
:1000D800000193510001936F000E00010001986F19
:1000E800000193510001936F000E000100019C6F05
:1000F800000193510001936F000E000100019A6FF7
:10010800000193510001936F000E00010001996FE7
:1001180000019351C6AC29D0C69C000120EE0CF01A
:100128000001CB51D9260001CC51DA22050EDF6E31
:100138000001936F010E00010001996F00019351B6
:10014800000120EE0EF00001CB51D9260001CC5160
:10015800DA22DF2A000120EE0DF00001CB51D9266A
:100168000001CC51DA22040EDF6EC7A00AD0C9CF35
:100178009BF00001936F010E000100019D6F0001CB
:100188009351000100019967CDD1B6D1C7A6CAD154
:100198009DC030F087EC07F0000120EE0CF0000164
:1001A800CB51D9260001CC51DA22080EDF62BAD130
:1001B8000001936F000E000100019D6F0001935133
:1001C8000001936F010E000100019A6F87D1C7A843
:1001D80030D0000120EE0BF00001CB51D9260001F0
:1001E800CC51DA22DF2A000100019D51D8B479D11F
:1001F800C7BA09D00001936F010E000100019C6F7E
:10020800000193516ED1000120EE0EF00001CB5198
:10021800D9260001CC51DA22DF2A000120EE0DF0A8
:100228000001CB51D9260001CC51DA22060EDF6E2F
:1002380058D1000100019D51D8B474D1000120EEBD
:100248000BF00001CB51D9260001CC51DA22DF2A6C
:10025800C7BA19D0C7B40BD0000120EE0CF00001CA
:10026800CB51D9260001CC51DA22070E76D00001F5
:1002780020EE0CF00001CB51D9260001CC51DA2236
:10028800080EDF6E1DD1000120EE0EF00001CB51EB
:10029800D9260001CC51DA22DF2A000120EE0CF029
:1002A8000001CB51D9260001CC51DA22050EDF6EB0
:1002B800000120EE0DF00001CB51D9260001CC51F0
:1002C800DA22060E4AD0000120EE1AF00001CB51C6
:1002D800D9260001CC51DA22DF500001936F0001CA
:1002E80020EE19F00001CB51D9260001CC51DA22B9
:1002F800DF500001935DD8B0F4D0000120EE1AF071
:100308000001CB51D9260001CC51DA22DF5000017F
:10031800936F00019351010D0F0EF326000EF42286
:10032800F35000010001CB25D96EF4500001000103
:10033800CC21DA6EDF50C96E000120EE1AF0000100
:10034800CB51D9260001CC51DA22DF2A0001936F64
:10035800010E00010001986FC1D0DF6EE3D0C7A87D
:1003680062D0000120EE0BF00001CB51D92600012C
:10037800CC51DA22DF2A000100019D51D8B44AD0BD
:10038800C7AA27D0000120EE0AF00001CB51D926D8
:100398000001CC51DA22DF500001936F0001935124
:1003A800010DF35000010001CB25D96EF450000176
:1003B8000001CC21DA6E00019BC0DFFF000120EEB6
:1003C8000AF00001CB51D9260001CC51DA22DF2AEC
:1003D80021D0000120EE0EF00001CB51D9260001FA
:1003E800CC51DA22DF2A000120EE0DF00001CB51BA
:1003F800D9260001CC51DA22060EDF6E000120EE6C
:100408000CF00001CB51D9260001CC51DA22050E9F
:10041800DF6E67D00001936F010E000100019C6F31
:10042800000193515ED0000100019D51D8B47AD0EB
:10043800000120EE0BF00001CB51D9260001CC5170
:10044800DA22DF2AC7AA27D0000120EE0AF000012D
:10045800CB51D9260001CC51DA22DF500001936F2D
:1004680000019351010DF35000010001CB25D96E15
:10047800F45000010001CC21DA6E00019BC0DFFFBF
:10048800000120EE0AF00001CB51D9260001CC5121
:10049800DA22DF2A47D0C7A4B6D6000120EE0CF036
:1004A8000001CB51D9260001CC51DA22080EDF6EAB
:1004B8000001936F010E000100019C6F0001935130
:1004C8000001936F010E000100019A6F0001935122
:1004D8000001936F000E000100019D6F0001935110
:1004E80021D0000120EE0CF00001CB51D9260001EB
:1004F800CC51DA22050E31D7000120EE0CF00001B4
:10050800CB51D9260001CC51DA22DF50050AD8B4E4
:100518003DD6030AD8B45BD6010AD8B420D70F0A4F
:10052800D8B4D1D6000100019D6705D000010001B3
:100538009851D8B402D0C6A8C688000120EE0AF0A7
:100548000001CB51D9260001CC51DA22080EDF6414
:1005580024D0000100019C6720D0000120EE0CF09F
:100568000001CB51D9260001CC51DA22050EDF6EED
:10057800000120EE0EF00001CB51D9260001CC512C
:10058800DA22DF2A000120EE0DF00001CB51D92636
:100598000001CC51DA22070EDF6E000100019C51E8
:1005A800D8B447D0000120EE0BF00001CB51D9267A
:1005B8000001CC51DA22000110EE0AF00001CB5103
:1005C800E1260001CC51E222E7500001936F0001BF
:1005D8009351010DF35000010001CB25E16EF45059
:1005E80000010001CC21E26EDFCFE7FF000120EE21
:1005F8000AF00001CB51D9260001CC51DA22DF5094
:100608000001936F00019329000100018F6F000121
:10061800946F280E00010001906F00019451CBC027
:1006280091F0CCC092F00DEC0CF0000120EE0AF035
:1006380051D0000120EE0EF00001CB51D926000167
:10064800CC51DA22DF50D8B44DD0000120EE0EF0A4
:100658000001CB51D9260001CC51DA22DF5000012C
:100668000001956F000120EE0DF00001CB51D92655
:100678000001CC51DA22DF5000010001966F000121
:1006880020EE0BF00001CB51D9260001CC51DA2223
:10069800DF5000010001976F0001936F030E000106
:1006A80000018F6F000193510001946F290E000122
:1006B8000001906F000194510001000E000100013B
:1006C800926F0001950E0001916F0DEC0CF0000186
:1006D80020EE0EF00001CB51D9260001CC51DA22D0
:1006E800000EDF6E000100019A51D8B4120000011B
:1006F800936F000E000100018F6F000193510001FC
:10070800946F2A0E00010001906F00019451CBC034
:1007180091F0CCC092F00DEC0CF01200000E01012B
:100728000101E96F000E0101E86F820ED36E9B9CF8
:100738000101010E00010001AE6F0101EA0E000186
:10074800AD6F8AEC0CF0B5EC09F0000E936E000E5C
:100758008A6E0001CA6FF50E00010001AD6F00013D
:10076800CA5144EC0BF0BDEC0CF09F9043EC08F040
:100778000001CA6F0A0E00010001C56F0001CA51CD
:100788000101010E00010001C76F0101EC0E00011B
:10079800C66F0101010E00010001C96F0101D80EE9
:1007A8000001C86FA3EC0BF001010101ED6F01011D
:1007B8000101EDBF97D087D00101010E00010001B2
:1007C800AE6F0101E50E0001AD6F01010001ECC142
:1007D800AFF000010001B06B01010101ED51000112
:1007E8000001B16F0001B26B0001B1BFB207010196
:1007F800010E00010001B46F0101D80E0001B36FB2
:10080800B3EC0CF06FD0D8C1E7F16CD00001CA6F1F
:10081800020E01010101ED6F0001CA510001CA6F0A
:10082800AA0E01010101D96F0001CA51010101019C
:10083800E84BE92B01010101E951800A7F0F2C0ED9
:10084800D8B4E85DD8A031D0000E01010101E96FEC
:10085800000E0101E86F29D00001CA6F010E0101E5
:100868000101ED6F0001CA510001CA6F3A0E0BD0A9
:100878000001CA6F010E01010101ED6F0001CA51AB
:100888000001CA6FA30E01010101D86F0001CA510E
:100898000CD001010101E751A80AD8B4DDD7010A3B
:1008A800D8B4E6D7030AD8B4B1D7EDC1ADF0010189
:1008B800010E00010001AF6F0101D80E0001AE6FFB
:1008C80021EC06F00FD001010101EC510A0AD8B45D
:1008D80073D7220AD8B497D7010AD8B494D7030A91
:1008E800D8B4D7D70001CA6F0A0E00010001C56F3E
:1008F8000001CA510101010E00010001C76F010189
:10090800EC0E0001C66F0101010E00010001C96F64
:100918000101D80E0001C86F8DEC0BF00101010137
:10092800ED6F01010101EDBF21D74ED00101010E8C
:1009380000010001B06F0101EA0E0001AF6F010173
:100948000001ECC1B1F000010001B26B010101012D
:10095800ED5100010001B36F0001B46B0001B3BF9A
:10096800B4070101010E00010001B66F0101D80EA4
:100978000001B56F81EC09F0F9D60101010E000103
:100988000001AE6F0101E30E0001AD6F010100012E
:10099800ECC1AFF000010001B06B01010101ED51A4
:1009A80000010001B16F0001B26B0001B1BFB207D5
:1009B8000101010E00010001B46F0101D80E000110
:1009C800B36FEEEC0AF0D2D601010101EC510B0A2B
:1009D800D8B4ACD7150AD8B4D0D7010AD8B4CDD773
:1009E800C5D6000120EE35F00001B751D926000127
:1009F800B851DA22DF5000010001C06F0001000188
:100A0800C0510D0DF35000010001B7250001000190
:100A1800C36FF45000010001B8210001C46F010E3A
:100A2800C3C0D9FFC4C0DAFFDF626FD0000120EE77
:100A380001F00001C351D9260001C451DA22DF5068
:100A480000010001B96102D0FD0E1200000120EE84
:100A580001F00001C351D9260001C451DA22DF5048
:100A68000001BE6F0001BE5100010001C16F00010D
:100A7800C26BBCC0ADF0BDC0AEF0030E00010001FA
:100A8800C3250001BE6F000E00010001C421000152
:100A9800BF6FBEC0AFF0BFC0B0F0C1C0B1F0C2C040
:100AA800B2F017EC0AF0000120EE35F00001B75162
:100AB800D9260001B851DA22000110EE35F0000104
:100AC800B751E1260001B851E222E7500001BE6F9C
:100AD8000001BE29030BDF6E000120EE02F00001C9
:100AE800C351D9260001C451DA22BAC0E1FFBBC004
:100AF800E2FFDFCFE7FFC3C0D9FFC4C0DAFF000EB3
:100B0800DF6E00010001C1511200FC0E120000014D
:100B180020EE35F000018451D92600018551DA22F2
:100B2800DF50000100018D6F000100018D510D0D96
:100B3800F35000010001842500010001906FF4507A
:100B48000001000185210001916F010E90C0D9FFBD
:100B580091C0DAFFDF626FD0000120EE01F00001E2
:100B68009051D92600019151DA22DF50000100018D
:100B7800866102D0FD0E1200000120EE01F0000196
:100B88009051D92600019151DA22DF5000018B6F74
:100B980000018B51000100018E6F00018F6B89C02D
:100BA80030F08AC031F0030E0001000190250001E9
:100BB8008B6F000E00010001912100018C6F8BC02A
:100BC80032F08CC033F08EC034F08FC035F065EC55
:100BD8000AF0000120EE35F000018451D926000109
:100BE8008551DA22000110EE35F000018451E1262A
:100BF80000018551E222E75000018B6F00018B292B
:100C0800030BDF6E000120EE02F000019051D9269F
:100C180000019151DA2287C0E1FF88C0E2FFDFCFEF
:100C2800E7FF90C0D9FF91C0DAFF000EDF6E000128
:100C380000018E511200FC0E1200000120EE19F086
:100C48000001CB51D9260001CC51DA22000EDF6E0B
:100C580042D0000120EE19F00001CB51D926000145
:100C6800CC51DA22DF500001B06F0001B051010D04
:100C7800F35000010001AE25D96EF45000010001C7
:100C8800AF21DA6E000110EE19F00001CB51E12618
:100C98000001CC51E222E7500001B16F0001B151CF
:100CA800010D0F0EF326000EF422F350000100018F
:100CB800CB25E16EF45000010001CC21E26EDFCFBC
:100CC800E7FF000120EE19F00001CB51D926000101
:100CD800CC51DA22DF2A000120EE19F00001CB51B5
:100CE800D9260001CC51DA22DF500001B06F000193
:100CF8000001AD510001B05DD8A0ABD7000120EED6
:100D080019F00001CB51D9260001CC51DA2200019B
:100D1800ADC0DFFF000120EE1AF00001CB51D9264B
:100D28000001CC51DA22010EDF6E000120EE0FF037
:100D38000001CB51D9260001CC51DA22DF50C96E0F
:100D4800C68812000001000186C08AF00001000177
:100D58008B6B000120EE34F000018451D92600018C
:100D68008551DA22DF50000100018C6F000100017B
:100D78008C510D0DF3500001000184250001000184
:100D88008D6FF45000010001852100018E6F8DC028
:100D9800D9FF8EC0DAFFDF50D8B402D0FF0E1200A0
:100DA800000120EE01F000018D51D92600018E517D
:100DB800DA22000186C0DFFF000120EE02F0000108
:100DC8008D51D92600018E51DA22000187C0DFFF3C
:100DD800030E000100018D25306E000E0001000198
:100DE8008E21316E88C032F089C033F08AC034F069
:100DF8008BC035F065EC0AF0000120EE34F00001FC
:100E08008451D92600018551DA22000110EE34F010
:100E180000018451E12600018551E222E750366E37
:100E28003628030BDF6E8DC0D9FF8EC0DAFF010EA6
:100E3800DF6E010E120020EE35F00B50D9260C5053
:100E4800DA22DF50146E14500D0DF3500B24176E78
:100E5800F4500C20186E010E17C0D9FF18C0DAFF25
:100E6800DF624FD020EE01F01750D9261850DA2251
:100E7800DF500D6002D0FD0E120020EE01F0175079
:100E8800D9261850DA22DF50126E1250156E166AE3
:100E980010C001F011C002F0030E1724126E000EEC
:100EA8001820136E12C003F013C004F015C005F02B
:100EB80016C006F0CEEC0AF020EE35F00B50D9261D
:100EC8000C50DA2210EE35F00B50E1260C50E222DD
:100ED800E750126E1228030BDF6E20EE02F0175057
:100EE800D9261850DA220EC0E1FF0FC0E2FFDFCF8B
:100EF800E7FF17C0D9FF18C0DAFF000EDF6E1550E4
:100F08001200FC0E1200000120EE0BF00001CB5184
:100F1800D9260001CC51DA22010EDF6E000120EE45
:100F28000AF00001CB51D9260001CC51DA22000E7B
:100F3800DF6E3050D8B43DD0C7AA21D0000120EED2
:100F48000CF00001CB51D9260001CC51DA22050E54
:100F5800DF6E000120EE0EF00001CB51D926000112
:100F6800CC51DA22DF2A000120EE0DF00001CB512E
:100F7800D9260001CC51DA22050EDF6E1200C7A473
:100F88000CD0000120EE0CF00001CB51D926000155
:100F9800CC51DA22080EDF6E1200000120EE0CF0B0
:100FA8000001CB51D9260001CC51DA22070EDF6EA1
:100FB8001200000120EE0CF00001CB51D9260001EF
:100FC800CC51DA22060EDF6E12008AB002D0010E72
:100FD80001D0000E0001976F8A5000019719FE0B8F
:100FE80097198A6E000E316E000E306E9CEC0CF074
:100FF8000001976F020E00010001926F00019751E6
:101008000001000E00010001946F00019B0E000119
:10101800936F0001000E00010001966F00019D0E04
:101028000001956FB9EC0BF000010001996F000108
:101038009A6B000199BF9A07000100019951020AB1
:101048009A11D8A412000001976F020E0001000146
:101058008F6F000197510001986F0A0E000100017F
:10106800906F000198510001000E00010001926F7D
:1010780000019D0E0001916F0DEC0CF01200ACEC1C
:101088000AF000010001B2510001B111D8B41200F8
:101098008A860001B36F010E416E0001B351010150
:1010A800010E00010001AE6F01016C0E0001AD6F71
:1010B80029EC0BF00009D8B408D00001B36F000E7A
:1010C800416E0001B3518A9612000101010E000120
:1010D8000001AE6F0101A20E0001AD6F29EC0BF00B
:1010E8000009D8B408D00001B36F000E416E0001AA
:1010F800B3518A9612000001B36F0A0E0001000175
:10110800AD6F0001B35178EC0CF08AB602D0010E35
:1011180001D0000E0001B36F0001B347B347B347D6
:101128008A500001B319F70BB3198A6EB8D70DC0EE
:1011380012F0136A20EE34F00B50D9260C50DA2244
:10114800DF50146E14500D0DF3500B24156EF4502F
:101158000C20166E15C0D9FF16C0DAFFDF50D8B4C0
:1011680002D0FF0E120020EE01F01550D9261650BD
:10117800DA220DC0DFFF20EE02F01550D9261650F6
:10118800DA220EC0DFFF030E1524016E000E1620B2
:10119800026E0FC003F010C004F012C005F013C0B7
:1011A80006F0CEEC0AF020EE34F00B50D9260C50A5
:1011B800DA2210EE34F00B50E1260C50E222E75010
:1011C800116E1128030BDF6E15C0D9FF16C0DAFFA8
:1011D800010EDF6E010E1200EACFA2F0E1CFA3F0FC
:1011E800E2CFA4F0D9CFA5F0DACFA6F0F3CFA7F0DD
:1011F800F4CFA8F0F6CFA9F0F7CFAAF0F8CFABF06C
:10120800F5CFACF09EA601D001D004D09E9666EC36
:1012180000F000D0F2A401D001D004D0F294E9EC9F
:1012280007F000D09EAC01D001D004D09E9C5EECAB
:101238000BF000D09EAA01D001D003D00DEC0BF02A
:1012480000D03EEC0AF0ACC0F5FFABC0F8FFAAC076
:10125800F7FFA9C0F6FFA8C0F4FFA7C0F3FFA6C018
:10126800DAFFA5C0D9FFA4C0E2FFA3C0E1FFA2C076
:10127800EAFFA1C0E9FFA0C0FBFF9FC0FAFF110071
:10128800000120EE34F00001AD51D9260001AE5125
:10129800DA22000EDF6E000120EE35F00001AD51BC
:1012A800D9260001AE51DA22000EDF6E0001AF6FC1
:1012B800000E00010001B06F0001AF51030E0001E4
:1012C8000001B06501D0120000010001B0510D0D00
:1012D800F35000010001AD25D96EF4500001000162
:1012E800AE21DA6E000EDF6E00010001B02B030E96
:1012F80000010001B065E8D7120000010001CD2B04
:101308000001B76F080E00010001AD6F0001B75171
:101318000001B86F800E00010001AE6F0001B851E6
:1013280034EC0CF0C730E832010B0001B76FC55040
:101338001F0B0001B7110009D8A4F4D7C580C5B0A8
:10134800FED70001B76F550E00010001AD6F000117
:10135800B751E8EC09F0CDC0ADF0E8EC09F0C69A59
:1013680012000001B16F000E416E0001B151010180
:10137800010E00010001AE6F0101A20E0001AD6F68
:1013880044EC09F00101010E00010001AE6F0101FA
:101398006C0E0001AD6F44EC09F00101010E000173
:1013A8000001AE6F0101360E0001AD6F44EC09F08B
:1013B8000101010E00010001AE6F0101000E0001E4
:1013C800AD6F44EC09F01200ADC0C9FFC6BE1200F3
:1013D800C6500F0B080AD8B40CD0C6500F0B0B0A16
:1013E800D8B407D0C6889EA6FED7C7B41200C75087
:1013F8001200C6500F0B080AD8B405D0C6500F0B00
:101408000B0AD8A41200C7B0FED7C730E832010BC8
:101418000001AE6FC5501F0B0001AE110009D8A422
:10142800F4D7C5501200AFC0B5F0B0C0B6F0ADC02B
:10143800B3F0AEC0B4F012D0B5C0D9FFB6C0DAFF71
:10144800B3C0E1FFB4C0E2FFDFCFE7FF0001000156
:10145800B54BB62B00010001B34BB42B00010001C2
:10146800B107D8A0B2070001B129D8B4B229D8B4BD
:101478001200E2D7416601D0120076EC0BF033502F
:101488003210D8A41200ADEC0CF031503010D8B4A2
:1014980012000101010E316E01016C0E306E46EC36
:1014A8000CF00009D8A412000101010E316E0101EF
:1014B800A20E306E46EC0CF00009D8B4C1EC0CF06A
:1014C800120032C082F033C083F030C080F031C0E7
:1014D80081F012D082C0D9FF83C0DAFF80C0E1FF5B
:1014E80081C0E2FFDFCFE7FF00010001824B832BC1
:1014F80000010001804B812B3406D8A03506342822
:10150800D8B43528D8B41200E5D7F2AC08D0000E0C
:1015180000010001B06F000E0001AF6F120081ECF6
:101528000CF000010001AE510001AD11D8B408D093
:10153800000E00010001B06F000E0001AF6F120035
:10154800000E00010001B06F010E0001AF6F120024
:1015580089EC0AF000010001B0510001AF11D8A4D4
:1015680011D081EC0CF000010001AE510001AD1169
:10157800D8A408D0000E00010001B26F010E0001CE
:10158800B16F1200000E00010001B26F000E0001E1
:10159800B16F120003C009F004C00AF001C007F0DF
:1015A80002C008F00ED009C0D9FF0AC0DAFF07C090
:1015B800E1FF08C0E2FFDFCFE7FF094A0A2A074A2E
:1015C800082A0506D8A006060528D8B40628D8B4DF
:1015D8001200E9D700010001AF511E0AB011D8B4BA
:1015E800120000010001AF511F0AB011D8A4120067
:1015F80000010001B15100010001B325D96E0001BD
:101608000001B25100010001B421DA6E000EDF6E54
:10161800120069EC0CF0446E0001936F010E00019A
:1016280000018F6F000193510001946F280E000193
:101638000001906F00019451000144C091F0000135
:101648000001926B0DEC0CF01200000120EE35F059
:101658000001AD51D9260001AE51DA22DF50000158
:10166800AF6F0001AF510D0DF35000010001AD2522
:10167800D96EF45000010001AE21DA6EDF5012007D
:1016880000010001AD517E0BCD6E00010001ADAD32
:1016980002D0CD8E01D0CD9E000ECF6E000ECE6E44
:1016A8009E9000010001ADAF02D09D8001D09D90B9
:1016B800CD801200B8EC0CF030C037F031C038F0F3
:1016C8003A50800A7F0F2B0ED8B4395CD8B003D0BB
:1016D800394A3A2A1200000E3A6E000E396EC4ECEE
:1016E8000CF01200F2AC05D0000E336E000E326E14
:1016F8001200ADEC0CF031503010D8B405D0000E0B
:10170800336E000E326E1200000E336E010E326E12
:1017180012000101010E00010001B86F0101A20EC3
:101728000001B76FC5C0B9F0C6C0BAF0C7C0BBF0FA
:10173800C8C0BCF0C9C0BDF0F5EC04F0120001014E
:10174800010E00010001B86F01016C0E0001B76FB6
:10175800C5C0B9F0C6C0BAF0C7C0BBF0C8C0BCF0BD
:10176800C9C0BDF0F5EC04F012000101010E000142
:101778000001856F0101000E0001846F92C086F0A0
:1017880093C087F094C088F095C089F096C08AF01D
:101798008BEC05F0120001EE00F0D80EEE6AE806B8
:1017A800FDE10001CD6BCC6BCB6B00EE37F01A0E70
:1017B800EE6AE806FDE1000EF86E000192EF03F014
:1017C8001B6E000E176E1B501C6E0B0E186E1C50F5
:1017D800000E1A6E000E196E58EC0CF0FE0E026E1A
:1017E8003E0E016E93EC0CF012001E6E0A0E196E7E
:1017F8001E50000E1B6E500E1A6E000E1D6E450E0A
:101808001C6E21EC0CF045C001F0A5EC0CF09D9885
:1018180012000101010E00010001856F01016C0E2B
:101828000001846F8FC086F090C087F091C088F067
:1018380092C089F0A6EC06F012000101010E0C6EB0
:101848000101000E0B6E19C00DF01AC00EF01BC07E
:101858000FF01CC010F01DC011F01FEC07F01200B3
:101868003F0EC716000EC66E000EC56E00010001C1
:10187800AD51C61200010001AE51C712948694887A
:10188800C68A120020EE35F03050D9263150DA22BF
:10189800DF50326E32500D0DF3503024D96EF450B3
:1018A8003120DA6EDF5012000101010E0C6E0101C9
:1018B800A20E0B6E17C00DF018C00EF019C00FF075
:1018C8001AC010F09BEC08F01200F20E4216ABACF6
:1018D80003D04290ABB04280ABB44284ABB24286F4
:1018E800AECF30F030501200FA0E00F0E82EFDD7DF
:1018F80000010001AD2FF8D71200000EF2AE010E64
:1019080000010001AD6F0001AE6B1200ADC0D9FF40
:10191800AEC0DAFF000EDE6E000EDD6E120001C0F2
:1019280003F002C004F004C0CFFF03C0CEFF1200D2
:1019380030C032F031C033F033C0D7FF32C0D6FFE9
:101948001200ACAC03D0AC9042B2AC8001C0ADFF89
:101958001200000EF2AE010E306E316A1200B3C0F2
:10196800B5F0B4C0B6F01200C450316EC350306E3A
:101978001200D08EF28EF28C1200D38E0300120069
:06198800CD909D901200BD
:067FF80080F4C5FFFFF15B
:00000001FF
